{
  "contractName": "AccessControl",
  "abi": [
    {
      "inputs": [],
      "stateMutability": "nonpayable",
      "type": "constructor"
    },
    {
      "anonymous": false,
      "inputs": [
        {
          "indexed": true,
          "internalType": "bytes32",
          "name": "role",
          "type": "bytes32"
        },
        {
          "indexed": true,
          "internalType": "address",
          "name": "account",
          "type": "address"
        }
      ],
      "name": "RoleGranted",
      "type": "event"
    },
    {
      "anonymous": false,
      "inputs": [
        {
          "indexed": true,
          "internalType": "bytes32",
          "name": "role",
          "type": "bytes32"
        },
        {
          "indexed": true,
          "internalType": "address",
          "name": "account",
          "type": "address"
        }
      ],
      "name": "RoleRevoked",
      "type": "event"
    },
    {
      "inputs": [
        {
          "internalType": "bytes32",
          "name": "",
          "type": "bytes32"
        },
        {
          "internalType": "address",
          "name": "",
          "type": "address"
        }
      ],
      "name": "roles",
      "outputs": [
        {
          "internalType": "bool",
          "name": "",
          "type": "bool"
        }
      ],
      "stateMutability": "view",
      "type": "function"
    },
    {
      "inputs": [
        {
          "internalType": "bytes32",
          "name": "_role",
          "type": "bytes32"
        },
        {
          "internalType": "address",
          "name": "_account",
          "type": "address"
        }
      ],
      "name": "grantRole",
      "outputs": [],
      "stateMutability": "nonpayable",
      "type": "function"
    },
    {
      "inputs": [
        {
          "internalType": "bytes32",
          "name": "_role",
          "type": "bytes32"
        },
        {
          "internalType": "address",
          "name": "_account",
          "type": "address"
        }
      ],
      "name": "revokeRole",
      "outputs": [],
      "stateMutability": "nonpayable",
      "type": "function"
    }
  ],
  "bytecode": "0x608060405234801561001057600080fd5b5061004560405160200161002390610151565b604051602081830303815290604052805190602001203361004a60201b60201c565b610166565b600160008084815260200190815260200160002060008373ffffffffffffffffffffffffffffffffffffffff1673ffffffffffffffffffffffffffffffffffffffff16815260200190815260200160002060006101000a81548160ff0219169083151502179055508073ffffffffffffffffffffffffffffffffffffffff16827f2ae6a113c0ed5b78a53413ffbb7679881f11145ccfba4fb92e863dfcd5a1d2f360405160405180910390a35050565b600081905092915050565b7f41444d494e000000000000000000000000000000000000000000000000000000600082015250565b600061013b6005836100fa565b915061014682610105565b600582019050919050565b600061015c8261012e565b9150819050919050565b6105fd806101756000396000f3fe608060405234801561001057600080fd5b50600436106100415760003560e01c80632f2ff15d14610046578063d547741f14610062578063f8fc08b91461007e575b600080fd5b610060600480360381019061005b9190610468565b6100ae565b005b61007c60048036038101906100779190610468565b61017e565b005b61009860048036038101906100939190610468565b6102f0565b6040516100a591906104c3565b60405180910390f35b6040516020016100bd90610535565b6040516020818303038152906040528051906020012060008082815260200190815260200160002060003373ffffffffffffffffffffffffffffffffffffffff1673ffffffffffffffffffffffffffffffffffffffff16815260200190815260200160002060009054906101000a900460ff1661016f576040517f08c379a0000000000000000000000000000000000000000000000000000000008152600401610166906105a7565b60405180910390fd5b610179838361031f565b505050565b60405160200161018d90610535565b6040516020818303038152906040528051906020012060008082815260200190815260200160002060003373ffffffffffffffffffffffffffffffffffffffff1673ffffffffffffffffffffffffffffffffffffffff16815260200190815260200160002060009054906101000a900460ff1661023f576040517f08c379a0000000000000000000000000000000000000000000000000000000008152600401610236906105a7565b60405180910390fd5b600080600085815260200190815260200160002060008473ffffffffffffffffffffffffffffffffffffffff1673ffffffffffffffffffffffffffffffffffffffff16815260200190815260200160002060006101000a81548160ff0219169083151502179055508173ffffffffffffffffffffffffffffffffffffffff16837f155aaafb6329a2098580462df33ec4b7441b19729b9601c5fc17ae1cf99a8a5260405160405180910390a3505050565b60006020528160005260406000206020528060005260406000206000915091509054906101000a900460ff1681565b600160008084815260200190815260200160002060008373ffffffffffffffffffffffffffffffffffffffff1673ffffffffffffffffffffffffffffffffffffffff16815260200190815260200160002060006101000a81548160ff0219169083151502179055508073ffffffffffffffffffffffffffffffffffffffff16827f2ae6a113c0ed5b78a53413ffbb7679881f11145ccfba4fb92e863dfcd5a1d2f360405160405180910390a35050565b600080fd5b6000819050919050565b6103e7816103d4565b81146103f257600080fd5b50565b600081359050610404816103de565b92915050565b600073ffffffffffffffffffffffffffffffffffffffff82169050919050565b60006104358261040a565b9050919050565b6104458161042a565b811461045057600080fd5b50565b6000813590506104628161043c565b92915050565b6000806040838503121561047f5761047e6103cf565b5b600061048d858286016103f5565b925050602061049e85828601610453565b9150509250929050565b60008115159050919050565b6104bd816104a8565b82525050565b60006020820190506104d860008301846104b4565b92915050565b600081905092915050565b7f41444d494e000000000000000000000000000000000000000000000000000000600082015250565b600061051f6005836104de565b915061052a826104e9565b600582019050919050565b600061054082610512565b9150819050919050565b600082825260208201905092915050565b7f4e6f7420417574686f72697a6564000000000000000000000000000000000000600082015250565b6000610591600e8361054a565b915061059c8261055b565b602082019050919050565b600060208201905081810360008301526105c081610584565b905091905056fea2646970667358221220ebe6a336a77adf02d44e8a29bf4037ba3d3bd8369b5b66977615cd449238ac1464736f6c634300080c0033",
  "immutableReferences": {},
  "source": "//SPDX-License-Identifier: MIT\npragma solidity ^0.8.7;\n\ncontract AccessControl {\n\n    event RoleGranted(\n        bytes32  indexed role,\n        address indexed account\n    );\n\n    event RoleRevoked(\n        bytes32 indexed role,\n        address indexed account\n    );\n\n    mapping(bytes32 => mapping(address => bool)) public roles;\n\n    /*\n        these were declared as private to save gas\n    */\n    bytes32 private constant ADMIN = keccak256(abi.encodePacked(\"ADMIN\"));\n    bytes32 private constant USER = keccak256(abi.encodePacked(\"USER\"));\n\n    modifier OnlyRole(bytes32 _role) {\n        require(roles[_role][msg.sender], \"Not Authorized\");\n        _;\n    }\n\n    /*\n        we set up the first admin\n    */\n    constructor(){\n        _grantRole(ADMIN, msg.sender);\n    }\n\n    /*\n        internal version of the grantRole function\n    */\n    function _grantRole(bytes32 _role, address _account) internal {\n        roles[_role][_account] = true;\n        emit RoleGranted(_role, _account);\n    }\n\n    /*\n        external version of the grantRole function\n    */\n    function grantRole(bytes32 _role, address _account) external OnlyRole(ADMIN) {\n        _grantRole(_role, _account);\n    }\n\n    /*\n        revoking roles function\n    */\n    function revokeRole(bytes32 _role, address _account) external OnlyRole(ADMIN) {\n        roles[_role][_account] = false;\n        emit RoleRevoked(_role, _account);\n    }\n\n}",
  "sourcePath": "/home/skodiak/Desarrollo/solidity_practices/contracts/Access_control.sol",
  "compiler": {
    "name": "solc",
    "version": "0.8.12+commit.f00d7308.Emscripten.clang"
  },
  "schemaVersion": "3.4.6",
  "updatedAt": "2022-06-20T02:00:09.272Z",
  "devdoc": {
    "kind": "dev",
    "methods": {},
    "version": 1
  },
  "userdoc": {
    "kind": "user",
    "methods": {},
    "version": 1
  }
}