{
  "contractName": "ArrayShift",
  "abi": [
    {
      "inputs": [
        {
          "internalType": "uint256",
          "name": "",
          "type": "uint256"
        }
      ],
      "name": "arr",
      "outputs": [
        {
          "internalType": "uint256",
          "name": "",
          "type": "uint256"
        }
      ],
      "stateMutability": "view",
      "type": "function"
    },
    {
      "inputs": [],
      "name": "example",
      "outputs": [],
      "stateMutability": "nonpayable",
      "type": "function"
    },
    {
      "inputs": [
        {
          "internalType": "uint256",
          "name": "_index",
          "type": "uint256"
        }
      ],
      "name": "remove",
      "outputs": [],
      "stateMutability": "nonpayable",
      "type": "function"
    }
  ],
  "bytecode": "0x608060405234801561001057600080fd5b50610523806100206000396000f3fe608060405234801561001057600080fd5b50600436106100415760003560e01c80634cc822151461004657806354353f2f1461006257806371e5ee5f1461006c575b600080fd5b610060600480360381019061005b91906102b9565b61009c565b005b61006a61018e565b005b610086600480360381019061008191906102b9565b6101eb565b60405161009391906102f5565b60405180910390f35b60008054905081106100e3576040517f08c379a00000000000000000000000000000000000000000000000000000000081526004016100da9061036d565b60405180910390fd5b60008190505b60016000805490506100fb91906103bc565b81101561016257600060018261011191906103f0565b8154811061012257610121610446565b5b90600052602060002001546000828154811061014157610140610446565b5b9060005260206000200181905550808061015a90610475565b9150506100e9565b506000805480610175576101746104be565b5b6001900381819060005260206000200160009055905550565b6040518060600160405280600160ff168152602001600260ff168152602001600360ff1681525060009060036101c592919061020f565b5060006001815481106101db576101da610446565b5b9060005260206000200160009055565b600081815481106101fb57600080fd5b906000526020600020016000915090505481565b828054828255906000526020600020908101928215610250579160200282015b8281111561024f578251829060ff1690559160200191906001019061022f565b5b50905061025d9190610261565b5090565b5b8082111561027a576000816000905550600101610262565b5090565b600080fd5b6000819050919050565b61029681610283565b81146102a157600080fd5b50565b6000813590506102b38161028d565b92915050565b6000602082840312156102cf576102ce61027e565b5b60006102dd848285016102a4565b91505092915050565b6102ef81610283565b82525050565b600060208201905061030a60008301846102e6565b92915050565b600082825260208201905092915050565b7f696e646578206f7574206f6620626f756e640000000000000000000000000000600082015250565b6000610357601283610310565b915061036282610321565b602082019050919050565b600060208201905081810360008301526103868161034a565b9050919050565b7f4e487b7100000000000000000000000000000000000000000000000000000000600052601160045260246000fd5b60006103c782610283565b91506103d283610283565b9250828210156103e5576103e461038d565b5b828203905092915050565b60006103fb82610283565b915061040683610283565b9250827fffffffffffffffffffffffffffffffffffffffffffffffffffffffffffffffff0382111561043b5761043a61038d565b5b828201905092915050565b7f4e487b7100000000000000000000000000000000000000000000000000000000600052603260045260246000fd5b600061048082610283565b91507fffffffffffffffffffffffffffffffffffffffffffffffffffffffffffffffff8214156104b3576104b261038d565b5b600182019050919050565b7f4e487b7100000000000000000000000000000000000000000000000000000000600052603160045260246000fdfea2646970667358221220b6367f19f971ffb7f8da719c0d33cdbd8914ee4ed863b40629b30a987203049e64736f6c634300080c0033",
  "immutableReferences": {},
  "source": "//SPDX-License-Identifier: MIT\npragma solidity ^0.8.7;\n\ncontract ArrayShift {\n    uint[] public arr;\n    \n    function example() public {\n        arr = [1, 2, 3];\n        delete arr[1]; // [1, 0, 3] we dont want this\n    }\n\n    // [1, 2, 3] --> remove(1) --> [1, 3, 3] --> [1, 3]\n    // [1, 2, 3, 4, 5, 6] --> remove(2) --> [1, 2, 4, 5, 6, 6] --> [1, 2, 4, 5, 6]\n    function remove(uint _index) public {\n        require(_index < arr.length, \"index out of bound\");\n\n        for (uint i = _index; i < arr.length - 1; i++) { //shift the elements in the array (moves all elements \n            arr[i] = arr[i + 1];                         //after the index that we want to delete to the left)\n        }\n        arr.pop();                                       //deletes the last position in the array\n    }\n}",
  "sourcePath": "/home/skodiak/Desarrollo/solidity_practices/contracts/Remove_array_element.sol",
  "compiler": {
    "name": "solc",
    "version": "0.8.12+commit.f00d7308.Emscripten.clang"
  },
  "schemaVersion": "3.4.6",
  "updatedAt": "2022-06-20T02:00:09.311Z",
  "devdoc": {
    "kind": "dev",
    "methods": {},
    "version": 1
  },
  "userdoc": {
    "kind": "user",
    "methods": {},
    "version": 1
  }
}