{
  "contractName": "Array",
  "abi": [
    {
      "inputs": [
        {
          "internalType": "uint256",
          "name": "",
          "type": "uint256"
        }
      ],
      "name": "nums",
      "outputs": [
        {
          "internalType": "uint256",
          "name": "",
          "type": "uint256"
        }
      ],
      "stateMutability": "view",
      "type": "function"
    },
    {
      "inputs": [
        {
          "internalType": "uint256",
          "name": "",
          "type": "uint256"
        }
      ],
      "name": "numsFixed",
      "outputs": [
        {
          "internalType": "uint256",
          "name": "",
          "type": "uint256"
        }
      ],
      "stateMutability": "view",
      "type": "function"
    },
    {
      "inputs": [],
      "name": "arrayOps",
      "outputs": [],
      "stateMutability": "nonpayable",
      "type": "function"
    },
    {
      "inputs": [],
      "name": "returnArray",
      "outputs": [
        {
          "internalType": "uint256[]",
          "name": "",
          "type": "uint256[]"
        }
      ],
      "stateMutability": "view",
      "type": "function"
    }
  ],
  "bytecode": "0x60806040526040518060600160405280600160ff168152602001600260ff168152602001600360ff16815250600090600361003b929190610086565b506040518060600160405280600460ff168152602001600560ff168152602001600660ff1681525060019060036100739291906100d8565b5034801561008057600080fd5b5061013a565b8280548282559060005260206000209081019282156100c7579160200282015b828111156100c6578251829060ff169055916020019190600101906100a6565b5b5090506100d4919061011d565b5090565b826003810192821561010c579160200282015b8281111561010b578251829060ff169055916020019190600101906100eb565b5b509050610119919061011d565b5090565b5b8082111561013657600081600090555060010161011e565b5090565b6104e1806101496000396000f3fe608060405234801561001057600080fd5b506004361061004c5760003560e01c80633cac14c814610051578063443957691461006f578063f81be1031461009f578063fd1ee54c146100a9575b600080fd5b6100596100d9565b6040516100669190610374565b60405180910390f35b610089600480360381019061008491906103c7565b610131565b6040516100969190610403565b60405180910390f35b6100a761014c565b005b6100c360048036038101906100be91906103c7565b610288565b6040516100d09190610403565b60405180910390f35b6060600080548060200260200160405190810160405280929190818152602001828054801561012757602002820191906000526020600020905b815481526020019060010190808311610113575b5050505050905090565b6001816003811061014157600080fd5b016000915090505481565b60006004908060018154018082558091505060019003906000526020600020016000909190919091505560008060018154811061018c5761018b61041e565b5b9060005260206000200154905061030960006002815481106101b1576101b061041e565b5b906000526020600020018190555060006001815481106101d4576101d361041e565b5b906000526020600020016000905560008054806101f4576101f361044d565b5b600190038181906000526020600020016000905590556000808054905090506000600567ffffffffffffffff8111156102305761022f61047c565b5b60405190808252806020026020018201604052801561025e5781602001602082028036833780820191505090505b509050607b816001815181106102775761027661041e565b5b602002602001018181525050505050565b6000818154811061029857600080fd5b906000526020600020016000915090505481565b600081519050919050565b600082825260208201905092915050565b6000819050602082019050919050565b6000819050919050565b6102eb816102d8565b82525050565b60006102fd83836102e2565b60208301905092915050565b6000602082019050919050565b6000610321826102ac565b61032b81856102b7565b9350610336836102c8565b8060005b8381101561036757815161034e88826102f1565b975061035983610309565b92505060018101905061033a565b5085935050505092915050565b6000602082019050818103600083015261038e8184610316565b905092915050565b600080fd5b6103a4816102d8565b81146103af57600080fd5b50565b6000813590506103c18161039b565b92915050565b6000602082840312156103dd576103dc610396565b5b60006103eb848285016103b2565b91505092915050565b6103fd816102d8565b82525050565b600060208201905061041860008301846103f4565b92915050565b7f4e487b7100000000000000000000000000000000000000000000000000000000600052603260045260246000fd5b7f4e487b7100000000000000000000000000000000000000000000000000000000600052603160045260246000fd5b7f4e487b7100000000000000000000000000000000000000000000000000000000600052604160045260246000fdfea264697066735822122069561c139223530901cb37a17885bf7e636864fb6c2495f25e9e412656047bed64736f6c634300080c0033",
  "immutableReferences": {},
  "source": "//SPDX-License-Identifier: MIT\npragma solidity ^0.8.7;\n\ncontract Array {\n    //dynamic uint array\n    uint[] public nums = [1, 2, 3];\n\n    //fixed size array\n    uint[3] public numsFixed = [4, 5, 6];\n\n    function arrayOps() external {\n        nums.push(4); // [1, 2, 3, 4]\n        uint x = nums[1]; // returns value in 1st position\n        nums[2] = 777; // [1, 2, 777, 4] assignation\n        delete nums[1]; // [1, 0, 777, 4]\n        nums.pop(); // [1, 0, 777]\n        uint len = nums.length; //returns length of array\n\n        // create array in memory\n        uint[] memory a = new uint[](5); //cant be dynamic\n        a[1] = 123; //assignation\n    }\n\n    //to return an array in a function it should be stored in memory first\n    function returnArray() external view returns (uint[] memory) {\n        return nums;\n    }\n}",
  "sourcePath": "/home/skodiak/Desarrollo/solidity_practices/contracts/Array.sol",
  "compiler": {
    "name": "solc",
    "version": "0.8.12+commit.f00d7308.Emscripten.clang"
  },
  "schemaVersion": "3.4.6",
  "updatedAt": "2022-06-20T02:00:09.283Z",
  "devdoc": {
    "kind": "dev",
    "methods": {},
    "version": 1
  },
  "userdoc": {
    "kind": "user",
    "methods": {},
    "version": 1
  }
}