{
  "contractName": "Counter",
  "abi": [
    {
      "inputs": [],
      "name": "count",
      "outputs": [
        {
          "internalType": "uint256",
          "name": "",
          "type": "uint256"
        }
      ],
      "stateMutability": "view",
      "type": "function",
      "constant": true
    },
    {
      "inputs": [],
      "name": "increment",
      "outputs": [],
      "stateMutability": "nonpayable",
      "type": "function"
    },
    {
      "inputs": [],
      "name": "decrement",
      "outputs": [],
      "stateMutability": "nonpayable",
      "type": "function"
    },
    {
      "inputs": [],
      "name": "resetCounter",
      "outputs": [],
      "stateMutability": "nonpayable",
      "type": "function"
    }
  ],
  "bytecode": "0x608060405234801561001057600080fd5b506101f5806100206000396000f3fe608060405234801561001057600080fd5b506004361061004c5760003560e01c806306661abd146100515780632baeceb71461006f578063d09de08a14610079578063dbdf7fce14610083575b600080fd5b61005961008d565b60405161006691906100eb565b60405180910390f35b610077610093565b005b6100816100ae565b005b61008b6100c9565b005b60005481565b60016000808282546100a59190610135565b92505081905550565b60016000808282546100c09190610169565b92505081905550565b60008081905550565b6000819050919050565b6100e5816100d2565b82525050565b600060208201905061010060008301846100dc565b92915050565b7f4e487b7100000000000000000000000000000000000000000000000000000000600052601160045260246000fd5b6000610140826100d2565b915061014b836100d2565b92508282101561015e5761015d610106565b5b828203905092915050565b6000610174826100d2565b915061017f836100d2565b9250827fffffffffffffffffffffffffffffffffffffffffffffffffffffffffffffffff038211156101b4576101b3610106565b5b82820190509291505056fea26469706673582212207854c47f964d71e5ee209329a80f81466061e610eeba3c46af4ee007e7b3b62f64736f6c634300080c0033",
  "immutableReferences": {},
  "source": "//SPDX-License-Identifier: MIT\npragma solidity ^0.8.7;\n\ncontract Counter {\n\n    uint public count;\n\n    function increment() external {\n        count += 1;\n    }\n\n    function decrement() external {\n        count -= 1;\n    }\n\n    function resetCounter() external {\n        count = 0;\n    }\n    \n}",
  "sourcePath": "/home/skodiak/Desarrollo/solidity_practices/contracts/Counter.sol",
  "compiler": {
    "name": "solc",
    "version": "0.8.12+commit.f00d7308.Emscripten.clang"
  },
  "schemaVersion": "3.4.6",
  "updatedAt": "2022-04-07T02:01:31.702Z",
  "networkType": "ethereum",
  "devdoc": {
    "kind": "dev",
    "methods": {},
    "version": 1
  },
  "userdoc": {
    "kind": "user",
    "methods": {},
    "version": 1
  }
}