{
  "contractName": "CrowdFund",
  "abi": [
    {
      "inputs": [
        {
          "internalType": "contract IERC20",
          "name": "_token",
          "type": "address"
        }
      ],
      "stateMutability": "nonpayable",
      "type": "constructor"
    },
    {
      "anonymous": false,
      "inputs": [
        {
          "indexed": false,
          "internalType": "uint256",
          "name": "id",
          "type": "uint256"
        }
      ],
      "name": "Cancelled",
      "type": "event"
    },
    {
      "anonymous": false,
      "inputs": [
        {
          "indexed": true,
          "internalType": "uint256",
          "name": "id",
          "type": "uint256"
        },
        {
          "indexed": false,
          "internalType": "uint256",
          "name": "amount",
          "type": "uint256"
        }
      ],
      "name": "Claimed",
      "type": "event"
    },
    {
      "anonymous": false,
      "inputs": [
        {
          "indexed": false,
          "internalType": "uint256",
          "name": "id",
          "type": "uint256"
        },
        {
          "indexed": true,
          "internalType": "address",
          "name": "creator",
          "type": "address"
        },
        {
          "indexed": false,
          "internalType": "uint256",
          "name": "goal",
          "type": "uint256"
        },
        {
          "indexed": false,
          "internalType": "uint32",
          "name": "startAt",
          "type": "uint32"
        },
        {
          "indexed": false,
          "internalType": "uint32",
          "name": "endAt",
          "type": "uint32"
        }
      ],
      "name": "Launch",
      "type": "event"
    },
    {
      "anonymous": false,
      "inputs": [
        {
          "indexed": true,
          "internalType": "uint256",
          "name": "id",
          "type": "uint256"
        },
        {
          "indexed": true,
          "internalType": "address",
          "name": "caller",
          "type": "address"
        },
        {
          "indexed": false,
          "internalType": "uint256",
          "name": "amount",
          "type": "uint256"
        }
      ],
      "name": "Pledged",
      "type": "event"
    },
    {
      "anonymous": false,
      "inputs": [
        {
          "indexed": false,
          "internalType": "uint256",
          "name": "id",
          "type": "uint256"
        },
        {
          "indexed": true,
          "internalType": "address",
          "name": "caller",
          "type": "address"
        },
        {
          "indexed": false,
          "internalType": "uint256",
          "name": "amount",
          "type": "uint256"
        }
      ],
      "name": "Refunded",
      "type": "event"
    },
    {
      "anonymous": false,
      "inputs": [
        {
          "indexed": true,
          "internalType": "uint256",
          "name": "id",
          "type": "uint256"
        },
        {
          "indexed": true,
          "internalType": "address",
          "name": "caller",
          "type": "address"
        },
        {
          "indexed": false,
          "internalType": "uint256",
          "name": "amount",
          "type": "uint256"
        }
      ],
      "name": "Unpledged",
      "type": "event"
    },
    {
      "inputs": [],
      "name": "TOKEN",
      "outputs": [
        {
          "internalType": "contract IERC20",
          "name": "",
          "type": "address"
        }
      ],
      "stateMutability": "view",
      "type": "function",
      "constant": true
    },
    {
      "inputs": [
        {
          "internalType": "uint256",
          "name": "",
          "type": "uint256"
        }
      ],
      "name": "campaigns",
      "outputs": [
        {
          "internalType": "address",
          "name": "creator",
          "type": "address"
        },
        {
          "internalType": "uint32",
          "name": "starts",
          "type": "uint32"
        },
        {
          "internalType": "uint32",
          "name": "ends",
          "type": "uint32"
        },
        {
          "internalType": "uint256",
          "name": "goal",
          "type": "uint256"
        },
        {
          "internalType": "uint256",
          "name": "pledged",
          "type": "uint256"
        },
        {
          "internalType": "bool",
          "name": "claimed",
          "type": "bool"
        }
      ],
      "stateMutability": "view",
      "type": "function",
      "constant": true
    },
    {
      "inputs": [],
      "name": "count",
      "outputs": [
        {
          "internalType": "uint256",
          "name": "",
          "type": "uint256"
        }
      ],
      "stateMutability": "view",
      "type": "function",
      "constant": true
    },
    {
      "inputs": [
        {
          "internalType": "uint256",
          "name": "",
          "type": "uint256"
        },
        {
          "internalType": "address",
          "name": "",
          "type": "address"
        }
      ],
      "name": "pledgedAmounts",
      "outputs": [
        {
          "internalType": "uint256",
          "name": "",
          "type": "uint256"
        }
      ],
      "stateMutability": "view",
      "type": "function",
      "constant": true
    },
    {
      "inputs": [
        {
          "internalType": "uint256",
          "name": "_goal",
          "type": "uint256"
        },
        {
          "internalType": "uint32",
          "name": "_starts",
          "type": "uint32"
        },
        {
          "internalType": "uint32",
          "name": "_ends",
          "type": "uint32"
        }
      ],
      "name": "launchCampaign",
      "outputs": [],
      "stateMutability": "nonpayable",
      "type": "function"
    },
    {
      "inputs": [
        {
          "internalType": "uint256",
          "name": "_id",
          "type": "uint256"
        }
      ],
      "name": "cancelCampaign",
      "outputs": [],
      "stateMutability": "nonpayable",
      "type": "function"
    },
    {
      "inputs": [
        {
          "internalType": "uint256",
          "name": "_id",
          "type": "uint256"
        },
        {
          "internalType": "uint256",
          "name": "_amount",
          "type": "uint256"
        }
      ],
      "name": "pledge",
      "outputs": [],
      "stateMutability": "payable",
      "type": "function",
      "payable": true
    },
    {
      "inputs": [
        {
          "internalType": "uint256",
          "name": "_id",
          "type": "uint256"
        },
        {
          "internalType": "uint256",
          "name": "_amount",
          "type": "uint256"
        }
      ],
      "name": "unpledge",
      "outputs": [],
      "stateMutability": "payable",
      "type": "function",
      "payable": true
    },
    {
      "inputs": [
        {
          "internalType": "uint256",
          "name": "_id",
          "type": "uint256"
        }
      ],
      "name": "claimCampaign",
      "outputs": [],
      "stateMutability": "payable",
      "type": "function",
      "payable": true
    },
    {
      "inputs": [
        {
          "internalType": "uint256",
          "name": "_id",
          "type": "uint256"
        }
      ],
      "name": "refundCampaign",
      "outputs": [],
      "stateMutability": "payable",
      "type": "function",
      "payable": true
    }
  ],
  "bytecode": "0x60a06040523480156200001157600080fd5b5060405162001ee838038062001ee88339818101604052810190620000379190620000f0565b8073ffffffffffffffffffffffffffffffffffffffff1660808173ffffffffffffffffffffffffffffffffffffffff16815250505062000122565b600080fd5b600073ffffffffffffffffffffffffffffffffffffffff82169050919050565b6000620000a48262000077565b9050919050565b6000620000b88262000097565b9050919050565b620000ca81620000ab565b8114620000d657600080fd5b50565b600081519050620000ea81620000bf565b92915050565b60006020828403121562000109576200010862000072565b5b60006200011984828501620000d9565b91505092915050565b608051611d8e6200015a6000396000818161071d0152818161098801528181610a7b01528181610e9d01526111270152611d8e6000f3fe6080604052600436106100905760003560e01c8063711853ab11610059578063711853ab1461018457806382bfefc8146101a0578063d4f59815146101cb578063f59a9bb0146101f4578063fde327be1461021057610090565b80626f41031461009557806306661abd146100d2578063141961bc146100fd57806345598b4a1461013f5780635e2df35f14610168575b600080fd5b3480156100a157600080fd5b506100bc60048036038101906100b791906112b3565b61022c565b6040516100c99190611302565b60405180910390f35b3480156100de57600080fd5b506100e7610251565b6040516100f49190611302565b60405180910390f35b34801561010957600080fd5b50610124600480360381019061011f919061131d565b610257565b60405161013696959493929190611393565b60405180910390f35b34801561014b57600080fd5b506101666004803603810190610161919061131d565b6102e0565b005b610182600480360381019061017d919061131d565b61055b565b005b61019e600480360381019061019991906113f4565b6107fe565b005b3480156101ac57600080fd5b506101b5610a79565b6040516101c29190611493565b60405180910390f35b3480156101d757600080fd5b506101f260048036038101906101ed91906114da565b610a9d565b005b61020e6004803603810190610209919061131d565b610d33565b005b61022a600480360381019061022591906113f4565b610f8f565b005b6002602052816000526040600020602052806000526040600020600091509150505481565b60005481565b60016020528060005260406000206000915090508060000160009054906101000a900473ffffffffffffffffffffffffffffffffffffffff16908060000160149054906101000a900463ffffffff16908060000160189054906101000a900463ffffffff16908060010154908060020154908060030160009054906101000a900460ff16905086565b6000600160008381526020019081526020016000206040518060c00160405290816000820160009054906101000a900473ffffffffffffffffffffffffffffffffffffffff1673ffffffffffffffffffffffffffffffffffffffff1673ffffffffffffffffffffffffffffffffffffffff1681526020016000820160149054906101000a900463ffffffff1663ffffffff1663ffffffff1681526020016000820160189054906101000a900463ffffffff1663ffffffff1663ffffffff16815260200160018201548152602001600282015481526020016003820160009054906101000a900460ff16151515158152505090503373ffffffffffffffffffffffffffffffffffffffff16816000015173ffffffffffffffffffffffffffffffffffffffff1614610445576040517f08c379a000000000000000000000000000000000000000000000000000000000815260040161043c9061158a565b60405180910390fd5b806020015163ffffffff164210610491576040517f08c379a0000000000000000000000000000000000000000000000000000000008152600401610488906115f6565b60405180910390fd5b60016000838152602001908152602001600020600080820160006101000a81549073ffffffffffffffffffffffffffffffffffffffff02191690556000820160146101000a81549063ffffffff02191690556000820160186101000a81549063ffffffff0219169055600182016000905560028201600090556003820160006101000a81549060ff021916905550507fc41d93b8bfbf9fd7cf5bfe271fd649ab6a6fec0ea101c23b82a2a28eca2533a98260405161054f9190611302565b60405180910390a15050565b60006001600083815260200190815260200160002090503373ffffffffffffffffffffffffffffffffffffffff168160000160009054906101000a900473ffffffffffffffffffffffffffffffffffffffff1673ffffffffffffffffffffffffffffffffffffffff1614610604576040517f08c379a00000000000000000000000000000000000000000000000000000000081526004016105fb9061158a565b60405180910390fd5b8060000160189054906101000a900463ffffffff1663ffffffff16421015610661576040517f08c379a000000000000000000000000000000000000000000000000000000000815260040161065890611662565b60405180910390fd5b8060010154816002015410156106ac576040517f08c379a00000000000000000000000000000000000000000000000000000000081526004016106a3906116ce565b60405180910390fd5b8060030160009054906101000a900460ff16156106fe576040517f08c379a00000000000000000000000000000000000000000000000000000000081526004016106f59061173a565b60405180910390fd5b60018160030160006101000a81548160ff0219169083151502179055507f000000000000000000000000000000000000000000000000000000000000000073ffffffffffffffffffffffffffffffffffffffff1663a9059cbb3383600201546040518363ffffffff1660e01b815260040161077a92919061175a565b6020604051808303816000875af1158015610799573d6000803e3d6000fd5b505050506040513d601f19601f820116820180604052508101906107bd91906117af565b50817fc83b5086ce94ec8d5a88a9f5fea4b18a522bb238ed0d2d8abd959549a80c16b882600201546040516107f29190611302565b60405180910390a25050565b60006001600084815260200190815260200160002090508060000160189054906101000a900463ffffffff1663ffffffff164210610871576040517f08c379a000000000000000000000000000000000000000000000000000000000815260040161086890611828565b60405180910390fd5b816002600085815260200190815260200160002060003373ffffffffffffffffffffffffffffffffffffffff1673ffffffffffffffffffffffffffffffffffffffff168152602001908152602001600020541015610904576040517f08c379a00000000000000000000000000000000000000000000000000000000081526004016108fb906118e0565b60405180910390fd5b81816002016000828254610918919061192f565b92505081905550816002600085815260200190815260200160002060003373ffffffffffffffffffffffffffffffffffffffff1673ffffffffffffffffffffffffffffffffffffffff168152602001908152602001600020600082825461097f919061192f565b925050819055507f000000000000000000000000000000000000000000000000000000000000000073ffffffffffffffffffffffffffffffffffffffff1663a9059cbb33846040518363ffffffff1660e01b81526004016109e192919061175a565b6020604051808303816000875af1158015610a00573d6000803e3d6000fd5b505050506040513d601f19601f82011682018060405250810190610a2491906117af565b503373ffffffffffffffffffffffffffffffffffffffff16837ffcd29b1632c6748a9a4bb9b4cd5c6486c3c84a8550dce2368f83fef3969d968584604051610a6c9190611302565b60405180910390a3505050565b7f000000000000000000000000000000000000000000000000000000000000000081565b428263ffffffff161015610ae6576040517f08c379a0000000000000000000000000000000000000000000000000000000008152600401610add906119d5565b60405180910390fd5b8163ffffffff168163ffffffff161015610b35576040517f08c379a0000000000000000000000000000000000000000000000000000000008152600401610b2c90611a67565b60405180910390fd5b6276a70042610b449190611a87565b8163ffffffff161115610b8c576040517f08c379a0000000000000000000000000000000000000000000000000000000008152600401610b8390611b4f565b60405180910390fd5b6001600080828254610b9e9190611a87565b925050819055506040518060c001604052803373ffffffffffffffffffffffffffffffffffffffff1681526020018363ffffffff1681526020018263ffffffff1681526020018481526020016000815260200160001515815250600160008054815260200190815260200160002060008201518160000160006101000a81548173ffffffffffffffffffffffffffffffffffffffff021916908373ffffffffffffffffffffffffffffffffffffffff16021790555060208201518160000160146101000a81548163ffffffff021916908363ffffffff16021790555060408201518160000160186101000a81548163ffffffff021916908363ffffffff160217905550606082015181600101556080820151816002015560a08201518160030160006101000a81548160ff0219169083151502179055509050503373ffffffffffffffffffffffffffffffffffffffff167f0601cd0d650b473037e838a2696d41e654433d065b3f56b28d1d3302e44a304f600054858585604051610d269493929190611b6f565b60405180910390a2505050565b60006001600083815260200190815260200160002090508060000160189054906101000a900463ffffffff1663ffffffff164211610da6576040517f08c379a0000000000000000000000000000000000000000000000000000000008152600401610d9d90611662565b60405180910390fd5b8060010154816002015410610df0576040517f08c379a0000000000000000000000000000000000000000000000000000000008152600401610de790611c00565b60405180910390fd5b60006002600084815260200190815260200160002060003373ffffffffffffffffffffffffffffffffffffffff1673ffffffffffffffffffffffffffffffffffffffff16815260200190815260200160002054905060006002600085815260200190815260200160002060003373ffffffffffffffffffffffffffffffffffffffff1673ffffffffffffffffffffffffffffffffffffffff168152602001908152602001600020819055507f000000000000000000000000000000000000000000000000000000000000000073ffffffffffffffffffffffffffffffffffffffff1663a9059cbb33836040518363ffffffff1660e01b8152600401610ef692919061175a565b6020604051808303816000875af1158015610f15573d6000803e3d6000fd5b505050506040513d601f19601f82011682018060405250810190610f3991906117af565b503373ffffffffffffffffffffffffffffffffffffffff167f7ca5472b7ea78c2c0141c5a12ee6d170cf4ce8ed06be3d22c8252ddfc7a6a2c48483604051610f82929190611c20565b60405180910390a2505050565b60006001600084815260200190815260200160002090508060000160149054906101000a900463ffffffff1663ffffffff16421015611003576040517f08c379a0000000000000000000000000000000000000000000000000000000008152600401610ffa90611c95565b60405180910390fd5b8060000160189054906101000a900463ffffffff1663ffffffff16421061105f576040517f08c379a000000000000000000000000000000000000000000000000000000000815260040161105690611828565b60405180910390fd5b60008214156110a3576040517f08c379a000000000000000000000000000000000000000000000000000000000815260040161109a90611d01565b60405180910390fd5b818160020160008282546110b79190611a87565b92505081905550816002600085815260200190815260200160002060003373ffffffffffffffffffffffffffffffffffffffff1673ffffffffffffffffffffffffffffffffffffffff168152602001908152602001600020600082825461111e9190611a87565b925050819055507f000000000000000000000000000000000000000000000000000000000000000073ffffffffffffffffffffffffffffffffffffffff166323b872dd3330856040518463ffffffff1660e01b815260040161118293929190611d21565b6020604051808303816000875af11580156111a1573d6000803e3d6000fd5b505050506040513d601f19601f820116820180604052508101906111c591906117af565b503373ffffffffffffffffffffffffffffffffffffffff16837f2757ac6a40883f4491cc56930ae964df9034e343e660d5179eb01e198336756b8460405161120d9190611302565b60405180910390a3505050565b600080fd5b6000819050919050565b6112328161121f565b811461123d57600080fd5b50565b60008135905061124f81611229565b92915050565b600073ffffffffffffffffffffffffffffffffffffffff82169050919050565b600061128082611255565b9050919050565b61129081611275565b811461129b57600080fd5b50565b6000813590506112ad81611287565b92915050565b600080604083850312156112ca576112c961121a565b5b60006112d885828601611240565b92505060206112e98582860161129e565b9150509250929050565b6112fc8161121f565b82525050565b600060208201905061131760008301846112f3565b92915050565b6000602082840312156113335761133261121a565b5b600061134184828501611240565b91505092915050565b61135381611275565b82525050565b600063ffffffff82169050919050565b61137281611359565b82525050565b60008115159050919050565b61138d81611378565b82525050565b600060c0820190506113a8600083018961134a565b6113b56020830188611369565b6113c26040830187611369565b6113cf60608301866112f3565b6113dc60808301856112f3565b6113e960a0830184611384565b979650505050505050565b6000806040838503121561140b5761140a61121a565b5b600061141985828601611240565b925050602061142a85828601611240565b9150509250929050565b6000819050919050565b600061145961145461144f84611255565b611434565b611255565b9050919050565b600061146b8261143e565b9050919050565b600061147d82611460565b9050919050565b61148d81611472565b82525050565b60006020820190506114a86000830184611484565b92915050565b6114b781611359565b81146114c257600080fd5b50565b6000813590506114d4816114ae565b92915050565b6000806000606084860312156114f3576114f261121a565b5b600061150186828701611240565b9350506020611512868287016114c5565b9250506040611523868287016114c5565b9150509250925092565b600082825260208201905092915050565b7f4e6f7420617574686f72697a6564000000000000000000000000000000000000600082015250565b6000611574600e8361152d565b915061157f8261153e565b602082019050919050565b600060208201905081810360008301526115a381611567565b9050919050565b7f43616d706169676e20616c726561647920737461727465640000000000000000600082015250565b60006115e060188361152d565b91506115eb826115aa565b602082019050919050565b6000602082019050818103600083015261160f816115d3565b9050919050565b7f43616d706169676e206973207374696c6c206f6e676f696e6700000000000000600082015250565b600061164c60198361152d565b915061165782611616565b602082019050919050565b6000602082019050818103600083015261167b8161163f565b9050919050565b7f476f616c206e6f74207265616368656400000000000000000000000000000000600082015250565b60006116b860108361152d565b91506116c382611682565b602082019050919050565b600060208201905081810360008301526116e7816116ab565b9050919050565b7f43616d706169676e20616c726561647920636c61696d65640000000000000000600082015250565b600061172460188361152d565b915061172f826116ee565b602082019050919050565b6000602082019050818103600083015261175381611717565b9050919050565b600060408201905061176f600083018561134a565b61177c60208301846112f3565b9392505050565b61178c81611378565b811461179757600080fd5b50565b6000815190506117a981611783565b92915050565b6000602082840312156117c5576117c461121a565b5b60006117d38482850161179a565b91505092915050565b7f43616d706169676e2068617320616c726561647920656e646564000000000000600082015250565b6000611812601a8361152d565b915061181d826117dc565b602082019050919050565b6000602082019050818103600083015261184181611805565b9050919050565b7f43616e7420756e706c6564676520616e20616d6f756e7420626967676572207460008201527f68616e207768617420796f75206861766520616c726561647920706c6564676560208201527f6400000000000000000000000000000000000000000000000000000000000000604082015250565b60006118ca60418361152d565b91506118d582611848565b606082019050919050565b600060208201905081810360008301526118f9816118bd565b9050919050565b7f4e487b7100000000000000000000000000000000000000000000000000000000600052601160045260246000fd5b600061193a8261121f565b91506119458361121f565b92508282101561195857611957611900565b5b828203905092915050565b7f53746172742064617465206e6565647320746f20626520696e2074686520667560008201527f7475726500000000000000000000000000000000000000000000000000000000602082015250565b60006119bf60248361152d565b91506119ca82611963565b604082019050919050565b600060208201905081810360008301526119ee816119b2565b9050919050565b7f456e642064617465206e6565647320746f20626520677265617465722074686160008201527f6e20737461727420646174650000000000000000000000000000000000000000602082015250565b6000611a51602c8361152d565b9150611a5c826119f5565b604082019050919050565b60006020820190508181036000830152611a8081611a44565b9050919050565b6000611a928261121f565b9150611a9d8361121f565b9250827fffffffffffffffffffffffffffffffffffffffffffffffffffffffffffffffff03821115611ad257611ad1611900565b5b828201905092915050565b7f456e6420646174652067726561746572207468616e206d617820616c6c6f776560008201527f6400000000000000000000000000000000000000000000000000000000000000602082015250565b6000611b3960218361152d565b9150611b4482611add565b604082019050919050565b60006020820190508181036000830152611b6881611b2c565b9050919050565b6000608082019050611b8460008301876112f3565b611b9160208301866112f3565b611b9e6040830185611369565b611bab6060830184611369565b95945050505050565b7f43616d706169676e20776173207375636365737366756c000000000000000000600082015250565b6000611bea60178361152d565b9150611bf582611bb4565b602082019050919050565b60006020820190508181036000830152611c1981611bdd565b9050919050565b6000604082019050611c3560008301856112f3565b611c4260208301846112f3565b9392505050565b7f43616d706169676e20686176656e742073746172746564207965740000000000600082015250565b6000611c7f601b8361152d565b9150611c8a82611c49565b602082019050919050565b60006020820190508181036000830152611cae81611c72565b9050919050565b7f416d6f756e7420706c65646765642063616e6e6f742062652030000000000000600082015250565b6000611ceb601a8361152d565b9150611cf682611cb5565b602082019050919050565b60006020820190508181036000830152611d1a81611cde565b9050919050565b6000606082019050611d36600083018661134a565b611d43602083018561134a565b611d5060408301846112f3565b94935050505056fea264697066735822122043cb9401f176c7b7c5270cba3f12c62e829874bbe2c15e678aa1a24cf35cc46b64736f6c634300080c0033",
  "immutableReferences": {
    "775": [
      {
        "length": 32,
        "start": 1821
      },
      {
        "length": 32,
        "start": 2440
      },
      {
        "length": 32,
        "start": 2683
      },
      {
        "length": 32,
        "start": 3741
      },
      {
        "length": 32,
        "start": 4391
      }
    ]
  },
  "source": "//SPDX-License-Identifier: MIT\n\npragma solidity ^0.8.7;\n\nimport \"@openzeppelin/contracts/token/ERC20/IERC20.sol\";\n\ncontract CrowdFund {\n\n    event Launch(\n        uint id,\n        address indexed creator,\n        uint goal,\n        uint32 startAt,\n        uint32 endAt\n    );\n    \n    event Cancelled(\n        uint id\n    );\n    \n    event Pledged(\n        uint indexed id,\n        address indexed caller,\n        uint amount\n    );\n\n    event Unpledged(\n        uint indexed id,\n        address indexed caller,\n        uint amount\n    );\n\n    event Claimed(\n        uint indexed id,\n        uint amount\n    );\n\n    event Refunded(\n        uint id,\n        address indexed caller,\n        uint amount\n    );\n\n    struct Campaign {\n        address creator;\n        uint32 starts;\n        uint32 ends;\n        uint goal;\n        uint pledged;\n        bool claimed;\n    }\n\n    IERC20 public immutable TOKEN;\n\n    uint public count;\n    mapping(uint => Campaign) public campaigns;\n    mapping(uint => mapping(address => uint)) public pledgedAmounts;\n\n    constructor(IERC20 _token) {\n        TOKEN = _token;\n    }\n\n    function launchCampaign(uint _goal, uint32 _starts, uint32 _ends) external {\n        require(_starts >= block.timestamp, \"Start date needs to be in the future\");\n        require(_ends >= _starts, \"End date needs to be greater than start date\");\n        require(_ends <= block.timestamp + 90 days, \"End date greater than max allowed\");\n\n        count += 1;\n\n        campaigns[count] = Campaign({\n            creator: msg.sender,\n            starts: _starts,\n            ends: _ends,\n            goal: _goal,\n            pledged: 0,\n            claimed: false\n        });\n\n        emit Launch(\n            count,\n            msg.sender,\n            _goal,\n            _starts,\n            _ends\n        );\n    }\n\n    function cancelCampaign(uint _id) external {\n        Campaign memory campaign = campaigns[_id];\n\n        require(campaign.creator == msg.sender, \"Not authorized\");\n        require(block.timestamp < campaign.starts, \"Campaign already started\");\n\n        delete campaigns[_id];\n\n        emit Cancelled(\n            _id\n        );\n    }\n\n    function pledge(uint _id, uint _amount) external payable {\n        Campaign storage campaign = campaigns[_id];\n\n        require(block.timestamp >= campaign.starts, \"Campaign havent started yet\");\n        require(block.timestamp < campaign.ends, \"Campaign has already ended\");\n        require(_amount != 0, \"Amount pledged cannot be 0\");\n\n        campaign.pledged += _amount;\n        pledgedAmounts[_id][msg.sender] += _amount;\n        TOKEN.transferFrom(msg.sender, address(this), _amount);\n\n        emit Pledged(\n            _id,\n            msg.sender,\n            _amount\n        );\n    }\n\n    function unpledge(uint _id, uint _amount) external payable {\n        Campaign storage campaign = campaigns[_id];\n\n        require(block.timestamp < campaign.ends, \"Campaign has already ended\");\n        require(pledgedAmounts[_id][msg.sender] >= _amount, \"Cant unpledge an amount bigger than what you have already pledged\");\n\n        campaign.pledged -= _amount;\n        pledgedAmounts[_id][msg.sender] -= _amount;\n        TOKEN.transfer(msg.sender, _amount);\n\n        emit Unpledged(\n            _id,\n            msg.sender,\n            _amount\n        );\n    }\n\n    function claimCampaign(uint _id) external payable {\n        Campaign storage campaign = campaigns[_id];\n\n        require(campaign.creator == msg.sender, \"Not authorized\");\n        require(block.timestamp >= campaign.ends, \"Campaign is still ongoing\");\n        require(campaign.pledged >= campaign.goal, \"Goal not reached\");\n        require(!campaign.claimed, \"Campaign already claimed\");\n\n        campaign.claimed = true;\n        TOKEN.transfer(msg.sender, campaign.pledged);\n\n        emit Claimed(\n            _id,\n            campaign.pledged\n        );\n    }\n\n    function refundCampaign(uint _id) external payable {\n        Campaign storage campaign = campaigns[_id];\n\n        require(block.timestamp > campaign.ends, \"Campaign is still ongoing\");\n        require(campaign.pledged < campaign.goal, \"Campaign was successful\");\n\n        uint bal = pledgedAmounts[_id][msg.sender];\n        pledgedAmounts[_id][msg.sender] = 0;\n        TOKEN.transfer(msg.sender, bal);\n\n        emit Refunded(\n            _id,\n            msg.sender,\n            bal\n        );\n    }\n\n}",
  "sourcePath": "/home/skodiak/Desarrollo/crowdfund/contracts/Crowd_Funding.sol",
  "compiler": {
    "name": "solc",
    "version": "0.8.12+commit.f00d7308.Emscripten.clang"
  },
  "schemaVersion": "3.4.6",
  "updatedAt": "2022-06-29T04:55:10.658Z",
  "networkType": "ethereum",
  "devdoc": {
    "kind": "dev",
    "methods": {},
    "version": 1
  },
  "userdoc": {
    "kind": "user",
    "methods": {},
    "version": 1
  }
}