{
  "contractName": "IterableMapping",
  "abi": [
    {
      "inputs": [
        {
          "internalType": "address",
          "name": "",
          "type": "address"
        }
      ],
      "name": "balances",
      "outputs": [
        {
          "internalType": "uint256",
          "name": "",
          "type": "uint256"
        }
      ],
      "stateMutability": "view",
      "type": "function"
    },
    {
      "inputs": [
        {
          "internalType": "address",
          "name": "",
          "type": "address"
        }
      ],
      "name": "inserted",
      "outputs": [
        {
          "internalType": "bool",
          "name": "",
          "type": "bool"
        }
      ],
      "stateMutability": "view",
      "type": "function"
    },
    {
      "inputs": [
        {
          "internalType": "uint256",
          "name": "",
          "type": "uint256"
        }
      ],
      "name": "keys",
      "outputs": [
        {
          "internalType": "address",
          "name": "",
          "type": "address"
        }
      ],
      "stateMutability": "view",
      "type": "function"
    },
    {
      "inputs": [
        {
          "internalType": "address",
          "name": "_key",
          "type": "address"
        },
        {
          "internalType": "uint256",
          "name": "_value",
          "type": "uint256"
        }
      ],
      "name": "set",
      "outputs": [],
      "stateMutability": "nonpayable",
      "type": "function"
    },
    {
      "inputs": [],
      "name": "getSize",
      "outputs": [
        {
          "internalType": "uint256",
          "name": "",
          "type": "uint256"
        }
      ],
      "stateMutability": "view",
      "type": "function"
    },
    {
      "inputs": [],
      "name": "first",
      "outputs": [
        {
          "internalType": "uint256",
          "name": "",
          "type": "uint256"
        }
      ],
      "stateMutability": "view",
      "type": "function"
    },
    {
      "inputs": [],
      "name": "last",
      "outputs": [
        {
          "internalType": "uint256",
          "name": "",
          "type": "uint256"
        }
      ],
      "stateMutability": "view",
      "type": "function"
    }
  ],
  "bytecode": "0x608060405234801561001057600080fd5b506106fe806100206000396000f3fe608060405234801561001057600080fd5b506004361061007d5760003560e01c80633df4ddf41161005b5780633df4ddf4146100fe57806347799da81461011c5780637cd380f11461013a578063de8fa4311461016a5761007d565b80630cb6aaf11461008257806327e235e3146100b25780633825d828146100e2575b600080fd5b61009c600480360381019061009791906104b4565b610188565b6040516100a99190610522565b60405180910390f35b6100cc60048036038101906100c79190610569565b6101c7565b6040516100d991906105a5565b60405180910390f35b6100fc60048036038101906100f791906105c0565b6101df565b005b610106610332565b60405161011391906105a5565b60405180910390f35b6101246103b7565b60405161013191906105a5565b60405180910390f35b610154600480360381019061014f9190610569565b61044c565b604051610161919061061b565b60405180910390f35b61017261046c565b60405161017f91906105a5565b60405180910390f35b6002818154811061019857600080fd5b906000526020600020016000915054906101000a900473ffffffffffffffffffffffffffffffffffffffff1681565b60006020528060005260406000206000915090505481565b806000808473ffffffffffffffffffffffffffffffffffffffff1673ffffffffffffffffffffffffffffffffffffffff16815260200190815260200160002081905550600160008373ffffffffffffffffffffffffffffffffffffffff1673ffffffffffffffffffffffffffffffffffffffff16815260200190815260200160002060009054906101000a900460ff1661032e5760018060008473ffffffffffffffffffffffffffffffffffffffff1673ffffffffffffffffffffffffffffffffffffffff16815260200190815260200160002060006101000a81548160ff0219169083151502179055506002829080600181540180825580915050600190039060005260206000200160009091909190916101000a81548173ffffffffffffffffffffffffffffffffffffffff021916908373ffffffffffffffffffffffffffffffffffffffff1602179055505b5050565b6000806000600260008154811061034c5761034b610636565b5b9060005260206000200160009054906101000a900473ffffffffffffffffffffffffffffffffffffffff1673ffffffffffffffffffffffffffffffffffffffff1673ffffffffffffffffffffffffffffffffffffffff16815260200190815260200160002054905090565b6000806000600260016002805490506103d09190610694565b815481106103e1576103e0610636565b5b9060005260206000200160009054906101000a900473ffffffffffffffffffffffffffffffffffffffff1673ffffffffffffffffffffffffffffffffffffffff1673ffffffffffffffffffffffffffffffffffffffff16815260200190815260200160002054905090565b60016020528060005260406000206000915054906101000a900460ff1681565b6000600280549050905090565b600080fd5b6000819050919050565b6104918161047e565b811461049c57600080fd5b50565b6000813590506104ae81610488565b92915050565b6000602082840312156104ca576104c9610479565b5b60006104d88482850161049f565b91505092915050565b600073ffffffffffffffffffffffffffffffffffffffff82169050919050565b600061050c826104e1565b9050919050565b61051c81610501565b82525050565b60006020820190506105376000830184610513565b92915050565b61054681610501565b811461055157600080fd5b50565b6000813590506105638161053d565b92915050565b60006020828403121561057f5761057e610479565b5b600061058d84828501610554565b91505092915050565b61059f8161047e565b82525050565b60006020820190506105ba6000830184610596565b92915050565b600080604083850312156105d7576105d6610479565b5b60006105e585828601610554565b92505060206105f68582860161049f565b9150509250929050565b60008115159050919050565b61061581610600565b82525050565b6000602082019050610630600083018461060c565b92915050565b7f4e487b7100000000000000000000000000000000000000000000000000000000600052603260045260246000fd5b7f4e487b7100000000000000000000000000000000000000000000000000000000600052601160045260246000fd5b600061069f8261047e565b91506106aa8361047e565b9250828210156106bd576106bc610665565b5b82820390509291505056fea26469706673582212203eadbe35db6fbb99eb6544028a4acf12a691f04944884419e0195b9998afca3264736f6c634300080c0033",
  "immutableReferences": {},
  "source": "//SPDX-License-Identifier: MIT\npragma solidity ^0.8.7;\n\n/*\n    Mappings are not interable per se, we cannot use instructions\n    to know their size or to check if theres a value included in them\n    thats why we need some other elements so we can do this\n        - We declare a mapping to store balances\n        - Then a mapping where we will insert the key with a true value once its included\n        - And we declare an array including all the keys so we can know how many of them we have\n\n*/\n\ncontract IterableMapping {\n\n    mapping(address => uint) public balances;\n    mapping(address => bool) public inserted;\n    address[] public keys;\n\n    function set(address _key, uint _value) external {\n\n        balances[_key] = _value;\n\n        if (!inserted[_key]) {\n\n            inserted[_key] = true;\n            keys.push(_key);\n\n        }\n\n    }\n\n    function getSize() external view returns(uint) {\n\n        return keys.length;\n\n    }\n\n    function first() external view returns(uint) {\n\n        return balances[keys[0]];\n\n    }\n\n    function last() external view returns(uint) {\n\n        return balances[keys[keys.length - 1]];\n        \n    }\n}",
  "sourcePath": "/home/skodiak/Desarrollo/solidity_practices/contracts/Iterable_mapping.sol",
  "compiler": {
    "name": "solc",
    "version": "0.8.12+commit.f00d7308.Emscripten.clang"
  },
  "schemaVersion": "3.4.6",
  "updatedAt": "2022-06-20T02:00:09.300Z",
  "devdoc": {
    "kind": "dev",
    "methods": {},
    "version": 1
  },
  "userdoc": {
    "kind": "user",
    "methods": {},
    "version": 1
  }
}