{
  "contractName": "Multisend",
  "abi": [
    {
      "inputs": [],
      "stateMutability": "payable",
      "type": "constructor"
    },
    {
      "anonymous": false,
      "inputs": [
        {
          "indexed": true,
          "internalType": "address",
          "name": "oldOwner",
          "type": "address"
        },
        {
          "indexed": true,
          "internalType": "address",
          "name": "newOwner",
          "type": "address"
        }
      ],
      "name": "OwnerSet",
      "type": "event"
    },
    {
      "anonymous": false,
      "inputs": [
        {
          "indexed": true,
          "internalType": "address payable[]",
          "name": "recipients",
          "type": "address[]"
        },
        {
          "indexed": true,
          "internalType": "uint256[]",
          "name": "values",
          "type": "uint256[]"
        }
      ],
      "name": "Withdrawal",
      "type": "event"
    },
    {
      "inputs": [],
      "name": "owner",
      "outputs": [
        {
          "internalType": "address",
          "name": "",
          "type": "address"
        }
      ],
      "stateMutability": "view",
      "type": "function"
    },
    {
      "inputs": [],
      "name": "total_value",
      "outputs": [
        {
          "internalType": "uint256",
          "name": "",
          "type": "uint256"
        }
      ],
      "stateMutability": "view",
      "type": "function"
    },
    {
      "stateMutability": "payable",
      "type": "receive"
    },
    {
      "inputs": [
        {
          "internalType": "address payable[]",
          "name": "addrs",
          "type": "address[]"
        },
        {
          "internalType": "uint256[]",
          "name": "amnts",
          "type": "uint256[]"
        }
      ],
      "name": "withdrawals",
      "outputs": [],
      "stateMutability": "payable",
      "type": "function"
    }
  ],
  "bytecode": "0x6080604052336000806101000a81548173ffffffffffffffffffffffffffffffffffffffff021916908373ffffffffffffffffffffffffffffffffffffffff16021790555060008054906101000a900473ffffffffffffffffffffffffffffffffffffffff1673ffffffffffffffffffffffffffffffffffffffff16600073ffffffffffffffffffffffffffffffffffffffff167f342827c97908e5e2f71151c08502a66d44b6f758e3ac2f1de95f02eb95f0a73560405160405180910390a334600181905550610be9806100d56000396000f3fe6080604052600436106100385760003560e01c806327acd6881461005d5780638da5cb5b14610088578063d6c19d4b146100b357610058565b3661005857346001600082825461004f9190610400565b92505081905550005b600080fd5b34801561006957600080fd5b506100726100cf565b60405161007f9190610465565b60405180910390f35b34801561009457600080fd5b5061009d6100d5565b6040516100aa91906104c1565b60405180910390f35b6100cd60048036038101906100c89190610776565b6100f9565b005b60015481565b60008054906101000a900473ffffffffffffffffffffffffffffffffffffffff1681565b60008054906101000a900473ffffffffffffffffffffffffffffffffffffffff1673ffffffffffffffffffffffffffffffffffffffff163373ffffffffffffffffffffffffffffffffffffffff1614610187576040517f08c379a000000000000000000000000000000000000000000000000000000000815260040161017e9061084b565b60405180910390fd5b34600160008282546101999190610400565b9250508190555080518251146101e4576040517f08c379a00000000000000000000000000000000000000000000000000000000081526004016101db906108dd565b60405180910390fd5b60006101ef82610324565b9050806001541015610236576040517f08c379a000000000000000000000000000000000000000000000000000000000815260040161022d90610949565b60405180910390fd5b60005b83518110156102c65782818151811061025557610254610969565b5b60200260200101516001600082825461026e9190610998565b925050819055506102b384828151811061028b5761028a610969565b5b60200260200101518483815181106102a6576102a5610969565b5b602002602001015161037c565b80806102be906109cc565b915050610239565b50816040516102d59190610acd565b6040518091039020836040516102eb9190610b9c565b60405180910390207f9cdfa17ad9b48570d1ea5e0e84442ba80a51d6ba81c47df71ffb7c0e15e80a9e60405160405180910390a3505050565b6000806000905060005b83518110156103725783818151811061034a57610349610969565b5b60200260200101518261035d9190610400565b9150808061036a906109cc565b91505061032e565b5080915050919050565b8173ffffffffffffffffffffffffffffffffffffffff166108fc829081150290604051600060405180830381858888f193505050501580156103c2573d6000803e3d6000fd5b505050565b6000819050919050565b7f4e487b7100000000000000000000000000000000000000000000000000000000600052601160045260246000fd5b600061040b826103c7565b9150610416836103c7565b9250827fffffffffffffffffffffffffffffffffffffffffffffffffffffffffffffffff0382111561044b5761044a6103d1565b5b828201905092915050565b61045f816103c7565b82525050565b600060208201905061047a6000830184610456565b92915050565b600073ffffffffffffffffffffffffffffffffffffffff82169050919050565b60006104ab82610480565b9050919050565b6104bb816104a0565b82525050565b60006020820190506104d660008301846104b2565b92915050565b6000604051905090565b600080fd5b600080fd5b600080fd5b6000601f19601f8301169050919050565b7f4e487b7100000000000000000000000000000000000000000000000000000000600052604160045260246000fd5b61053e826104f5565b810181811067ffffffffffffffff8211171561055d5761055c610506565b5b80604052505050565b60006105706104dc565b905061057c8282610535565b919050565b600067ffffffffffffffff82111561059c5761059b610506565b5b602082029050602081019050919050565b600080fd5b60006105bd82610480565b9050919050565b6105cd816105b2565b81146105d857600080fd5b50565b6000813590506105ea816105c4565b92915050565b60006106036105fe84610581565b610566565b90508083825260208201905060208402830185811115610626576106256105ad565b5b835b8181101561064f578061063b88826105db565b845260208401935050602081019050610628565b5050509392505050565b600082601f83011261066e5761066d6104f0565b5b813561067e8482602086016105f0565b91505092915050565b600067ffffffffffffffff8211156106a2576106a1610506565b5b602082029050602081019050919050565b6106bc816103c7565b81146106c757600080fd5b50565b6000813590506106d9816106b3565b92915050565b60006106f26106ed84610687565b610566565b90508083825260208201905060208402830185811115610715576107146105ad565b5b835b8181101561073e578061072a88826106ca565b845260208401935050602081019050610717565b5050509392505050565b600082601f83011261075d5761075c6104f0565b5b813561076d8482602086016106df565b91505092915050565b6000806040838503121561078d5761078c6104e6565b5b600083013567ffffffffffffffff8111156107ab576107aa6104eb565b5b6107b785828601610659565b925050602083013567ffffffffffffffff8111156107d8576107d76104eb565b5b6107e485828601610748565b9150509250929050565b600082825260208201905092915050565b7f4e6f7420617574686f72697a6564000000000000000000000000000000000000600082015250565b6000610835600e836107ee565b9150610840826107ff565b602082019050919050565b6000602082019050818103600083015261086481610828565b9050919050565b7f4e756d626572206f6620726563697069656e747320616e64207472616e73616360008201527f74696f6e73206d757374206265207468652073616d6500000000000000000000602082015250565b60006108c76036836107ee565b91506108d28261086b565b604082019050919050565b600060208201905081810360008301526108f6816108ba565b9050919050565b7f4e6f7420656e6f7567682062616c616e636520746f2073656e64000000000000600082015250565b6000610933601a836107ee565b915061093e826108fd565b602082019050919050565b6000602082019050818103600083015261096281610926565b9050919050565b7f4e487b7100000000000000000000000000000000000000000000000000000000600052603260045260246000fd5b60006109a3826103c7565b91506109ae836103c7565b9250828210156109c1576109c06103d1565b5b828203905092915050565b60006109d7826103c7565b91507fffffffffffffffffffffffffffffffffffffffffffffffffffffffffffffffff821415610a0a57610a096103d1565b5b600182019050919050565b600081519050919050565b600081905092915050565b6000819050602082019050919050565b610a44816103c7565b82525050565b6000610a568383610a3b565b60208301905092915050565b6000602082019050919050565b6000610a7a82610a15565b610a848185610a20565b9350610a8f83610a2b565b8060005b83811015610ac0578151610aa78882610a4a565b9750610ab283610a62565b925050600181019050610a93565b5085935050505092915050565b6000610ad98284610a6f565b915081905092915050565b600081519050919050565b600081905092915050565b6000819050602082019050919050565b610b13816105b2565b82525050565b6000610b258383610b0a565b60208301905092915050565b6000602082019050919050565b6000610b4982610ae4565b610b538185610aef565b9350610b5e83610afa565b8060005b83811015610b8f578151610b768882610b19565b9750610b8183610b31565b925050600181019050610b62565b5085935050505092915050565b6000610ba88284610b3e565b91508190509291505056fea2646970667358221220f8b204898051d06ea9d75272e990b5024b0c9b52f03bf743850e885041ae199164736f6c634300080c0033",
  "immutableReferences": {},
  "source": "//SPDX-License-Identifier: MIT\n\npragma solidity ^0.8.7;\n\ncontract Multisend {\n\n    address public owner;\n\n    uint public total_value;\n\n    //Events\n    event OwnerSet(\n        address indexed oldOwner,\n        address indexed newOwner\n    );\n\n    event Withdrawal(\n        address payable[] indexed recipients,\n        uint[] indexed values\n    );  \n\n    constructor() payable {\n        owner = msg.sender;\n        emit OwnerSet(address(0), owner);\n\n        total_value = msg.value;\n    }\n\n    //MODIFIERS\n    modifier onlyOwner() {\n        require(msg.sender == owner, \"Not authorized\");\n        _;\n    }\n\n    function sum(uint[] memory amounts) private pure returns(uint totVal) {\n        uint totalAmount = 0;\n\n        for (uint i=0; i < amounts.length; i++){\n            totalAmount += amounts[i];\n        }\n\n        return totalAmount;\n    }\n\n    function withdraw(address payable _to, uint _amount) private  {\n        _to.transfer(_amount);\n    }\n\n    function withdrawals(address payable[] memory addrs, uint[] memory amnts) payable public onlyOwner{\n        \n        total_value += msg.value;\n\n        require(addrs.length == amnts.length, \"Number of recipients and transactions must be the same\");\n\n        uint totalAmnt = sum(amnts);\n\n        require(total_value >= totalAmnt, \"Not enough balance to send\");\n\n        for(uint i = 0; i < addrs.length; i++) {\n            total_value -= amnts[i];\n\n            withdraw(addrs[i], amnts[i]);\n        }\n\n        emit Withdrawal(addrs, amnts);\n    }\n\n    receive() external payable {\n        total_value += msg.value;\n    }\n   \n}\n\n",
  "sourcePath": "/home/skodiak/Desarrollo/solidity_practices/contracts/Multi_send.sol",
  "compiler": {
    "name": "solc",
    "version": "0.8.12+commit.f00d7308.Emscripten.clang"
  },
  "schemaVersion": "3.4.6",
  "updatedAt": "2022-06-20T02:00:09.302Z",
  "devdoc": {
    "kind": "dev",
    "methods": {},
    "version": 1
  },
  "userdoc": {
    "kind": "user",
    "methods": {},
    "version": 1
  }
}