{
  "contractName": "ownable",
  "abi": [
    {
      "inputs": [],
      "stateMutability": "nonpayable",
      "type": "constructor"
    },
    {
      "inputs": [],
      "name": "owner",
      "outputs": [
        {
          "internalType": "address",
          "name": "",
          "type": "address"
        }
      ],
      "stateMutability": "view",
      "type": "function",
      "constant": true
    },
    {
      "inputs": [
        {
          "internalType": "address",
          "name": "_newOwner",
          "type": "address"
        }
      ],
      "name": "setNewOwner",
      "outputs": [],
      "stateMutability": "nonpayable",
      "type": "function"
    },
    {
      "inputs": [],
      "name": "onlyOwnerCanCallThisFunct",
      "outputs": [],
      "stateMutability": "nonpayable",
      "type": "function"
    },
    {
      "inputs": [],
      "name": "everybodyCanCallThisFunct",
      "outputs": [],
      "stateMutability": "nonpayable",
      "type": "function"
    }
  ],
  "bytecode": "0x608060405234801561001057600080fd5b50336000806101000a81548173ffffffffffffffffffffffffffffffffffffffff021916908373ffffffffffffffffffffffffffffffffffffffff160217905550610495806100606000396000f3fe608060405234801561001057600080fd5b506004361061004c5760003560e01c806370573d02146100515780638d26014a1461005b5780638da5cb5b14610065578063f5a1f5b414610083575b600080fd5b61005961009f565b005b61006361012f565b005b61006d610131565b60405161007a91906102d7565b60405180910390f35b61009d60048036038101906100989190610323565b610155565b005b60008054906101000a900473ffffffffffffffffffffffffffffffffffffffff1673ffffffffffffffffffffffffffffffffffffffff163373ffffffffffffffffffffffffffffffffffffffff161461012d576040517f08c379a0000000000000000000000000000000000000000000000000000000008152600401610124906103d3565b60405180910390fd5b565b565b60008054906101000a900473ffffffffffffffffffffffffffffffffffffffff1681565b60008054906101000a900473ffffffffffffffffffffffffffffffffffffffff1673ffffffffffffffffffffffffffffffffffffffff163373ffffffffffffffffffffffffffffffffffffffff16146101e3576040517f08c379a00000000000000000000000000000000000000000000000000000000081526004016101da906103d3565b60405180910390fd5b600073ffffffffffffffffffffffffffffffffffffffff168173ffffffffffffffffffffffffffffffffffffffff161415610253576040517f08c379a000000000000000000000000000000000000000000000000000000000815260040161024a9061043f565b60405180910390fd5b806000806101000a81548173ffffffffffffffffffffffffffffffffffffffff021916908373ffffffffffffffffffffffffffffffffffffffff16021790555050565b600073ffffffffffffffffffffffffffffffffffffffff82169050919050565b60006102c182610296565b9050919050565b6102d1816102b6565b82525050565b60006020820190506102ec60008301846102c8565b92915050565b600080fd5b610300816102b6565b811461030b57600080fd5b50565b60008135905061031d816102f7565b92915050565b600060208284031215610339576103386102f2565b5b60006103478482850161030e565b91505092915050565b600082825260208201905092915050565b7f546869732066756e6374696f6e2063616e206f6e6c792062652063616c6c656460008201527f20627920746865206f776e657200000000000000000000000000000000000000602082015250565b60006103bd602d83610350565b91506103c882610361565b604082019050919050565b600060208201905081810360008301526103ec816103b0565b9050919050565b7f496e76616c696420616464726573730000000000000000000000000000000000600082015250565b6000610429600f83610350565b9150610434826103f3565b602082019050919050565b600060208201905081810360008301526104588161041c565b905091905056fea2646970667358221220720773ff5ff638bb1a0e9631a597710159de4301bc697a4f487e5d2bee51ce0164736f6c634300080c0033",
  "immutableReferences": {},
  "source": "//SPDX-License-Identifier: MIT\n\npragma solidity ^0.8.7;\n\ncontract ownable {\n    address public owner;\n\n    constructor() {\n        owner = msg.sender;\n    }\n\n    modifier onlyOwner() {\n        require(msg.sender == owner, \"This function can only be called by the owner\");\n        _;\n    }\n\n    function setNewOwner(address _newOwner) external onlyOwner {\n        require(_newOwner != address(0), \"Invalid address\");\n        owner = _newOwner;\n    }\n\n    function onlyOwnerCanCallThisFunct() external onlyOwner {\n        \n    }\n\n    function everybodyCanCallThisFunct() external {\n        \n    }\n}",
  "sourcePath": "/home/skodiak/Desarrollo/solidity_practices/contracts/Ownable.sol",
  "compiler": {
    "name": "solc",
    "version": "0.8.12+commit.f00d7308.Emscripten.clang"
  },
  "schemaVersion": "3.4.6",
  "updatedAt": "2022-04-07T02:01:31.706Z",
  "networkType": "ethereum",
  "devdoc": {
    "kind": "dev",
    "methods": {},
    "version": 1
  },
  "userdoc": {
    "kind": "user",
    "methods": {},
    "version": 1
  }
}