{
  "contractName": "Poll",
  "abi": [
    {
      "inputs": [],
      "stateMutability": "nonpayable",
      "type": "constructor"
    },
    {
      "inputs": [
        {
          "internalType": "address",
          "name": "",
          "type": "address"
        },
        {
          "internalType": "uint256",
          "name": "",
          "type": "uint256"
        }
      ],
      "name": "alreadyVoted",
      "outputs": [
        {
          "internalType": "bool",
          "name": "",
          "type": "bool"
        }
      ],
      "stateMutability": "view",
      "type": "function"
    },
    {
      "inputs": [
        {
          "internalType": "uint256",
          "name": "",
          "type": "uint256"
        },
        {
          "internalType": "uint256",
          "name": "",
          "type": "uint256"
        }
      ],
      "name": "campaigns",
      "outputs": [
        {
          "internalType": "string",
          "name": "description",
          "type": "string"
        },
        {
          "internalType": "uint256",
          "name": "totalVotes",
          "type": "uint256"
        }
      ],
      "stateMutability": "view",
      "type": "function"
    },
    {
      "inputs": [],
      "name": "owner",
      "outputs": [
        {
          "internalType": "address",
          "name": "",
          "type": "address"
        }
      ],
      "stateMutability": "view",
      "type": "function"
    },
    {
      "inputs": [
        {
          "internalType": "uint256",
          "name": "_campId",
          "type": "uint256"
        },
        {
          "internalType": "uint256",
          "name": "_propId",
          "type": "uint256"
        },
        {
          "internalType": "string",
          "name": "_desc",
          "type": "string"
        }
      ],
      "name": "createCampaign",
      "outputs": [],
      "stateMutability": "nonpayable",
      "type": "function"
    },
    {
      "inputs": [
        {
          "internalType": "uint256",
          "name": "_camp",
          "type": "uint256"
        },
        {
          "internalType": "uint256",
          "name": "_prop",
          "type": "uint256"
        }
      ],
      "name": "vote",
      "outputs": [
        {
          "internalType": "bool",
          "name": "",
          "type": "bool"
        }
      ],
      "stateMutability": "nonpayable",
      "type": "function"
    }
  ],
  "bytecode": "0x608060405234801561001057600080fd5b50336000806101000a81548173ffffffffffffffffffffffffffffffffffffffff021916908373ffffffffffffffffffffffffffffffffffffffff160217905550610a21806100606000396000f3fe608060405234801561001057600080fd5b50600436106100575760003560e01c8063186a96961461005c5780638da5cb5b1461008d57806391cbf44e146100ab578063b384abef146100c7578063e499dacf146100f7575b600080fd5b610076600480360381019061007191906104df565b610127565b6040516100849291906105c7565b60405180910390f35b6100956101e0565b6040516100a29190610638565b60405180910390f35b6100c560048036038101906100c09190610788565b610204565b005b6100e160048036038101906100dc91906104df565b610272565b6040516100ee9190610812565b60405180910390f35b610111600480360381019061010c9190610859565b6103c3565b60405161011e9190610812565b60405180910390f35b600160205281600052604060002060205280600052604060002060009150915050806000018054610157906108c8565b80601f0160208091040260200160405190810160405280929190818152602001828054610183906108c8565b80156101d05780601f106101a5576101008083540402835291602001916101d0565b820191906000526020600020905b8154815290600101906020018083116101b357829003601f168201915b5050505050908060010154905082565b60008054906101000a900473ffffffffffffffffffffffffffffffffffffffff1681565b80600160008581526020019081526020016000206000848152602001908152602001600020600001908051906020019061023f9291906103f2565b50600060016000858152602001908152602001600020600084815260200190815260200160002060010181905550505050565b6000600260003373ffffffffffffffffffffffffffffffffffffffff1673ffffffffffffffffffffffffffffffffffffffff168152602001908152602001600020600084815260200190815260200160002060009054906101000a900460ff1615610312576040517f08c379a000000000000000000000000000000000000000000000000000000000815260040161030990610946565b60405180910390fd5b6001600260003373ffffffffffffffffffffffffffffffffffffffff1673ffffffffffffffffffffffffffffffffffffffff168152602001908152602001600020600085815260200190815260200160002060006101000a81548160ff0219169083151502179055506001806000858152602001908152602001600020600084815260200190815260200160002060010160008282546103b29190610995565b925050819055506001905092915050565b60026020528160005260406000206020528060005260406000206000915091509054906101000a900460ff1681565b8280546103fe906108c8565b90600052602060002090601f0160209004810192826104205760008555610467565b82601f1061043957805160ff1916838001178555610467565b82800160010185558215610467579182015b8281111561046657825182559160200191906001019061044b565b5b5090506104749190610478565b5090565b5b80821115610491576000816000905550600101610479565b5090565b6000604051905090565b600080fd5b600080fd5b6000819050919050565b6104bc816104a9565b81146104c757600080fd5b50565b6000813590506104d9816104b3565b92915050565b600080604083850312156104f6576104f561049f565b5b6000610504858286016104ca565b9250506020610515858286016104ca565b9150509250929050565b600081519050919050565b600082825260208201905092915050565b60005b8381101561055957808201518184015260208101905061053e565b83811115610568576000848401525b50505050565b6000601f19601f8301169050919050565b600061058a8261051f565b610594818561052a565b93506105a481856020860161053b565b6105ad8161056e565b840191505092915050565b6105c1816104a9565b82525050565b600060408201905081810360008301526105e1818561057f565b90506105f060208301846105b8565b9392505050565b600073ffffffffffffffffffffffffffffffffffffffff82169050919050565b6000610622826105f7565b9050919050565b61063281610617565b82525050565b600060208201905061064d6000830184610629565b92915050565b600080fd5b600080fd5b7f4e487b7100000000000000000000000000000000000000000000000000000000600052604160045260246000fd5b6106958261056e565b810181811067ffffffffffffffff821117156106b4576106b361065d565b5b80604052505050565b60006106c7610495565b90506106d3828261068c565b919050565b600067ffffffffffffffff8211156106f3576106f261065d565b5b6106fc8261056e565b9050602081019050919050565b82818337600083830152505050565b600061072b610726846106d8565b6106bd565b90508281526020810184848401111561074757610746610658565b5b610752848285610709565b509392505050565b600082601f83011261076f5761076e610653565b5b813561077f848260208601610718565b91505092915050565b6000806000606084860312156107a1576107a061049f565b5b60006107af868287016104ca565b93505060206107c0868287016104ca565b925050604084013567ffffffffffffffff8111156107e1576107e06104a4565b5b6107ed8682870161075a565b9150509250925092565b60008115159050919050565b61080c816107f7565b82525050565b60006020820190506108276000830184610803565b92915050565b61083681610617565b811461084157600080fd5b50565b6000813590506108538161082d565b92915050565b600080604083850312156108705761086f61049f565b5b600061087e85828601610844565b925050602061088f858286016104ca565b9150509250929050565b7f4e487b7100000000000000000000000000000000000000000000000000000000600052602260045260246000fd5b600060028204905060018216806108e057607f821691505b602082108114156108f4576108f3610899565b5b50919050565b7f416c726561647920766f74656420696e20746869732063616d706169676e0000600082015250565b6000610930601e8361052a565b915061093b826108fa565b602082019050919050565b6000602082019050818103600083015261095f81610923565b9050919050565b7f4e487b7100000000000000000000000000000000000000000000000000000000600052601160045260246000fd5b60006109a0826104a9565b91506109ab836104a9565b9250827fffffffffffffffffffffffffffffffffffffffffffffffffffffffffffffffff038211156109e0576109df610966565b5b82820190509291505056fea2646970667358221220e0ed285bca22740c1dda8490358bbf632214949e619a0c892b5ea0d87614316b64736f6c634300080c0033",
  "immutableReferences": {},
  "source": "//SPDX-License-Identifier: MIT\n\n//MODIFIERS\n//DECIDE A WINNER\n\npragma solidity ^0.8.7;\n\ncontract Poll {\n\n    address public owner;\n\n    constructor() {\n        owner = msg.sender;\n    }\n\n    struct Proposal {\n        string description;\n        uint totalVotes;\n    }\n\n    mapping(uint => mapping(uint => Proposal)) public campaigns;\n\n    mapping(address => mapping(uint => bool)) public alreadyVoted;\n\n    function createCampaign(uint _campId, uint _propId, string memory _desc) external {\n        campaigns[_campId][_propId].description = _desc;\n        campaigns[_campId][_propId].totalVotes = 0;\n    }\n\n    function vote(uint _camp, uint _prop) external returns(bool) {\n        require(!alreadyVoted[msg.sender][_camp], \"Already voted in this campaign\");\n\n        alreadyVoted[msg.sender][_camp] = true;\n\n        campaigns[_camp][_prop].totalVotes += 1;\n        \n        return true;\n    }\n}",
  "sourcePath": "/home/skodiak/Desarrollo/solidity_practices/contracts/Poll.sol",
  "compiler": {
    "name": "solc",
    "version": "0.8.12+commit.f00d7308.Emscripten.clang"
  },
  "schemaVersion": "3.4.6",
  "updatedAt": "2022-06-20T02:00:09.308Z",
  "devdoc": {
    "kind": "dev",
    "methods": {},
    "version": 1
  },
  "userdoc": {
    "kind": "user",
    "methods": {},
    "version": 1
  }
}