{
  "contractName": "Timelockwallet",
  "abi": [
    {
      "inputs": [
        {
          "internalType": "address",
          "name": "",
          "type": "address"
        }
      ],
      "name": "deposits",
      "outputs": [
        {
          "internalType": "uint256",
          "name": "start",
          "type": "uint256"
        },
        {
          "internalType": "uint256",
          "name": "end",
          "type": "uint256"
        },
        {
          "internalType": "uint256",
          "name": "balance",
          "type": "uint256"
        }
      ],
      "stateMutability": "view",
      "type": "function"
    },
    {
      "inputs": [
        {
          "internalType": "uint256",
          "name": "_end",
          "type": "uint256"
        }
      ],
      "name": "save",
      "outputs": [],
      "stateMutability": "payable",
      "type": "function"
    },
    {
      "inputs": [
        {
          "internalType": "uint256",
          "name": "_newEnd",
          "type": "uint256"
        }
      ],
      "name": "modify",
      "outputs": [],
      "stateMutability": "payable",
      "type": "function"
    },
    {
      "inputs": [],
      "name": "withdraw",
      "outputs": [],
      "stateMutability": "payable",
      "type": "function"
    },
    {
      "inputs": [],
      "name": "getTime",
      "outputs": [
        {
          "internalType": "uint256",
          "name": "",
          "type": "uint256"
        }
      ],
      "stateMutability": "view",
      "type": "function"
    },
    {
      "inputs": [],
      "name": "getBalance",
      "outputs": [
        {
          "internalType": "uint256",
          "name": "",
          "type": "uint256"
        }
      ],
      "stateMutability": "view",
      "type": "function"
    }
  ],
  "bytecode": "0x608060405234801561001057600080fd5b50610986806100206000396000f3fe6080604052600436106100555760003560e01c806312065fe01461005a5780631b862027146100855780633ccfd60b146100a1578063557ed1ba146100ab578063916adad0146100d6578063fc7e286d146100f2575b600080fd5b34801561006657600080fd5b5061006f610131565b60405161007c91906105e1565b60405180910390f35b61009f600480360381019061009a919061062d565b61017f565b005b6100a96102b5565b005b3480156100b757600080fd5b506100c061040f565b6040516100cd91906105e1565b60405180910390f35b6100f060048036038101906100eb919061062d565b610468565b005b3480156100fe57600080fd5b50610119600480360381019061011491906106b8565b61059e565b604051610128939291906106e5565b60405180910390f35b6000806000803373ffffffffffffffffffffffffffffffffffffffff1673ffffffffffffffffffffffffffffffffffffffff1681526020019081526020016000206002015490508091505090565b60003414156101c3576040517f08c379a00000000000000000000000000000000000000000000000000000000081526004016101ba90610779565b60405180910390fd5b346000803373ffffffffffffffffffffffffffffffffffffffff1673ffffffffffffffffffffffffffffffffffffffff168152602001908152602001600020600201600082825461021491906107c8565b92505081905550426000803373ffffffffffffffffffffffffffffffffffffffff1673ffffffffffffffffffffffffffffffffffffffff16815260200190815260200160002060000181905550804261026d91906107c8565b6000803373ffffffffffffffffffffffffffffffffffffffff1673ffffffffffffffffffffffffffffffffffffffff1681526020019081526020016000206001018190555050565b426000803373ffffffffffffffffffffffffffffffffffffffff1673ffffffffffffffffffffffffffffffffffffffff1681526020019081526020016000206001015410610338576040517f08c379a000000000000000000000000000000000000000000000000000000000815260040161032f9061086a565b60405180910390fd5b60008060003373ffffffffffffffffffffffffffffffffffffffff1673ffffffffffffffffffffffffffffffffffffffff16815260200190815260200160002060020154905060008060003373ffffffffffffffffffffffffffffffffffffffff1673ffffffffffffffffffffffffffffffffffffffff168152602001908152602001600020600201819055503373ffffffffffffffffffffffffffffffffffffffff166108fc829081150290604051600060405180830381858888f1935050505015801561040b573d6000803e3d6000fd5b5050565b600080426000803373ffffffffffffffffffffffffffffffffffffffff1673ffffffffffffffffffffffffffffffffffffffff1681526020019081526020016000206001015461045f919061088a565b90508091505090565b426000803373ffffffffffffffffffffffffffffffffffffffff1673ffffffffffffffffffffffffffffffffffffffff16815260200190815260200160002060010154116104eb576040517f08c379a00000000000000000000000000000000000000000000000000000000081526004016104e290610930565b60405180910390fd5b806000803373ffffffffffffffffffffffffffffffffffffffff1673ffffffffffffffffffffffffffffffffffffffff168152602001908152602001600020600101600082825461053c91906107c8565b92505081905550346000803373ffffffffffffffffffffffffffffffffffffffff1673ffffffffffffffffffffffffffffffffffffffff168152602001908152602001600020600201600082825461059491906107c8565b9250508190555050565b60006020528060005260406000206000915090508060000154908060010154908060020154905083565b6000819050919050565b6105db816105c8565b82525050565b60006020820190506105f660008301846105d2565b92915050565b600080fd5b61060a816105c8565b811461061557600080fd5b50565b60008135905061062781610601565b92915050565b600060208284031215610643576106426105fc565b5b600061065184828501610618565b91505092915050565b600073ffffffffffffffffffffffffffffffffffffffff82169050919050565b60006106858261065a565b9050919050565b6106958161067a565b81146106a057600080fd5b50565b6000813590506106b28161068c565b92915050565b6000602082840312156106ce576106cd6105fc565b5b60006106dc848285016106a3565b91505092915050565b60006060820190506106fa60008301866105d2565b61070760208301856105d2565b61071460408301846105d2565b949350505050565b600082825260208201905092915050565b7f596f75206e65656420746f2070726f7669646520612062616c616e6365000000600082015250565b6000610763601d8361071c565b915061076e8261072d565b602082019050919050565b6000602082019050818103600083015261079281610756565b9050919050565b7f4e487b7100000000000000000000000000000000000000000000000000000000600052601160045260246000fd5b60006107d3826105c8565b91506107de836105c8565b9250827fffffffffffffffffffffffffffffffffffffffffffffffffffffffffffffffff0382111561081357610812610799565b5b828201905092915050565b7f546f6f206561726c7920746f2077697468647261770000000000000000000000600082015250565b600061085460158361071c565b915061085f8261081e565b602082019050919050565b6000602082019050818103600083015261088381610847565b9050919050565b6000610895826105c8565b91506108a0836105c8565b9250828210156108b3576108b2610799565b5b828203905092915050565b7f54696d657320616c72656164792075702c207573652073617665206f7074696f60008201527f6e00000000000000000000000000000000000000000000000000000000000000602082015250565b600061091a60218361071c565b9150610925826108be565b604082019050919050565b600060208201905081810360008301526109498161090d565b905091905056fea26469706673582212209f442d292c44d84f78d61b50377dd61b86171421dbae4726ed178f6e62a8dde564736f6c634300080c0033",
  "immutableReferences": {},
  "source": "//SPDX-License-Identifier: MIT\npragma solidity ^0.8.7;\n\ncontract Timelockwallet {\n\n    struct Deposit{\n        uint start;\n        uint end;\n        uint balance;\n    }\n\n    mapping(address => Deposit) public deposits;\n\n    function save(uint _end) external payable {\n        require(msg.value != 0, \"You need to provide a balance\");\n        deposits[msg.sender].balance += msg.value;\n        deposits[msg.sender].start = block.timestamp;\n        deposits[msg.sender].end = block.timestamp + _end;\n    }\n\n    function modify(uint _newEnd) external payable {\n        require(deposits[msg.sender].end > block.timestamp, \"Times already up, use save option\");\n        deposits[msg.sender].end += _newEnd;\n        deposits[msg.sender].balance += msg.value;\n    }\n\n    function withdraw() external payable {\n        require(deposits[msg.sender].end < block.timestamp, \"Too early to withdraw\");\n        uint amount = deposits[msg.sender].balance;\n        deposits[msg.sender].balance = 0;\n\n        payable(msg.sender).transfer(amount);\n    }\n\n    function getTime() external view returns(uint) {\n        uint timeLeft = deposits[msg.sender].end - block.timestamp;        \n        return timeLeft;\n    }\n\n    function getBalance() external view returns(uint) {\n        uint _balance = deposits[msg.sender].balance;\n        return _balance;\n    }\n}",
  "sourcePath": "/home/skodiak/Desarrollo/solidity_practices/contracts/Timelock_wallet.sol",
  "compiler": {
    "name": "solc",
    "version": "0.8.12+commit.f00d7308.Emscripten.clang"
  },
  "schemaVersion": "3.4.6",
  "updatedAt": "2022-06-20T02:00:09.313Z",
  "devdoc": {
    "kind": "dev",
    "methods": {},
    "version": 1
  },
  "userdoc": {
    "kind": "user",
    "methods": {},
    "version": 1
  }
}