{
  "contractName": "Todo",
  "abi": [
    {
      "anonymous": false,
      "inputs": [
        {
          "indexed": true,
          "internalType": "address",
          "name": "owner",
          "type": "address"
        }
      ],
      "name": "TaskCompleted",
      "type": "event"
    },
    {
      "anonymous": false,
      "inputs": [
        {
          "indexed": true,
          "internalType": "address",
          "name": "owner",
          "type": "address"
        },
        {
          "indexed": true,
          "internalType": "string",
          "name": "text",
          "type": "string"
        }
      ],
      "name": "TaskCreated",
      "type": "event"
    },
    {
      "anonymous": false,
      "inputs": [
        {
          "indexed": true,
          "internalType": "address",
          "name": "owner",
          "type": "address"
        },
        {
          "indexed": false,
          "internalType": "string",
          "name": "oldText",
          "type": "string"
        },
        {
          "indexed": false,
          "internalType": "string",
          "name": "newText",
          "type": "string"
        }
      ],
      "name": "TaskUpdated",
      "type": "event"
    },
    {
      "inputs": [
        {
          "internalType": "address",
          "name": "",
          "type": "address"
        },
        {
          "internalType": "uint256",
          "name": "",
          "type": "uint256"
        }
      ],
      "name": "tasks",
      "outputs": [
        {
          "internalType": "string",
          "name": "text",
          "type": "string"
        },
        {
          "internalType": "bool",
          "name": "completed",
          "type": "bool"
        }
      ],
      "stateMutability": "view",
      "type": "function"
    },
    {
      "inputs": [
        {
          "internalType": "string",
          "name": "_text",
          "type": "string"
        }
      ],
      "name": "createTask",
      "outputs": [],
      "stateMutability": "nonpayable",
      "type": "function"
    },
    {
      "inputs": [
        {
          "internalType": "uint256",
          "name": "_index",
          "type": "uint256"
        }
      ],
      "name": "getTask",
      "outputs": [
        {
          "internalType": "string",
          "name": "",
          "type": "string"
        },
        {
          "internalType": "bool",
          "name": "",
          "type": "bool"
        }
      ],
      "stateMutability": "view",
      "type": "function"
    },
    {
      "inputs": [
        {
          "internalType": "uint256",
          "name": "_index",
          "type": "uint256"
        },
        {
          "internalType": "string",
          "name": "_text",
          "type": "string"
        }
      ],
      "name": "updateTask",
      "outputs": [],
      "stateMutability": "nonpayable",
      "type": "function"
    },
    {
      "inputs": [
        {
          "internalType": "uint256",
          "name": "_index",
          "type": "uint256"
        }
      ],
      "name": "toggleCompleted",
      "outputs": [],
      "stateMutability": "nonpayable",
      "type": "function"
    }
  ],
  "bytecode": "0x608060405234801561001057600080fd5b50610d81806100206000396000f3fe608060405234801561001057600080fd5b50600436106100575760003560e01c8063111002aa1461005c5780631d65e77e14610078578063455f5024146100a95780637149d2e4146100c557806386533f6c146100f6575b600080fd5b6100766004803603810190610071919061087d565b610112565b005b610092600480360381019061008d9190610900565b610273565b6040516100a09291906109e1565b60405180910390f35b6100c360048036038101906100be9190610900565b6103a4565b005b6100df60048036038101906100da9190610a6f565b6104d2565b6040516100ed9291906109e1565b60405180910390f35b610110600480360381019061010b9190610bdf565b6105a8565b005b6000803373ffffffffffffffffffffffffffffffffffffffff1673ffffffffffffffffffffffffffffffffffffffff168152602001908152602001600020604051806040016040528084848080601f016020809104026020016040519081016040528093929190818152602001838380828437600081840152601f19601f82011690508083019250505050505050815260200160001515815250908060018154018082558091505060019003906000526020600020906002020160009091909190915060008201518160000190805190602001906101f1929190610761565b5060208201518160010160006101000a81548160ff02191690831515021790555050508181604051610224929190610c6b565b60405180910390203373ffffffffffffffffffffffffffffffffffffffff167f3dbb9340c742ee69193c280d169beadc9303ebf1cb18a531012fa22cb3192e5360405160405180910390a35050565b60606000806000803373ffffffffffffffffffffffffffffffffffffffff1673ffffffffffffffffffffffffffffffffffffffff16815260200190815260200160002084815481106102c8576102c7610c84565b5b90600052602060002090600202016040518060400160405290816000820180546102f190610ce2565b80601f016020809104026020016040519081016040528092919081815260200182805461031d90610ce2565b801561036a5780601f1061033f5761010080835404028352916020019161036a565b820191906000526020600020905b81548152906001019060200180831161034d57829003601f168201915b505050505081526020016001820160009054906101000a900460ff1615151515815250509050806000015181602001519250925050915091565b6000803373ffffffffffffffffffffffffffffffffffffffff1673ffffffffffffffffffffffffffffffffffffffff16815260200190815260200160002081815481106103f4576103f3610c84565b5b906000526020600020906002020160010160009054906101000a900460ff16156000803373ffffffffffffffffffffffffffffffffffffffff1673ffffffffffffffffffffffffffffffffffffffff168152602001908152602001600020828154811061046457610463610c84565b5b906000526020600020906002020160010160006101000a81548160ff0219169083151502179055503373ffffffffffffffffffffffffffffffffffffffff167fc67e2ae474f7ddf78b2e9d5b6d45422b30f52a0efbb5600f9a723c515d385f9360405160405180910390a250565b600060205281600052604060002081815481106104ee57600080fd5b90600052602060002090600202016000915091505080600001805461051290610ce2565b80601f016020809104026020016040519081016040528092919081815260200182805461053e90610ce2565b801561058b5780601f106105605761010080835404028352916020019161058b565b820191906000526020600020905b81548152906001019060200180831161056e57829003601f168201915b5050505050908060010160009054906101000a900460ff16905082565b60008060003373ffffffffffffffffffffffffffffffffffffffff1673ffffffffffffffffffffffffffffffffffffffff16815260200190815260200160002083815481106105fa576105f9610c84565b5b9060005260206000209060020201600001805461061690610ce2565b80601f016020809104026020016040519081016040528092919081815260200182805461064290610ce2565b801561068f5780601f106106645761010080835404028352916020019161068f565b820191906000526020600020905b81548152906001019060200180831161067257829003601f168201915b50505050509050816000803373ffffffffffffffffffffffffffffffffffffffff1673ffffffffffffffffffffffffffffffffffffffff16815260200190815260200160002084815481106106e7576106e6610c84565b5b9060005260206000209060020201600001908051906020019061070b929190610761565b503373ffffffffffffffffffffffffffffffffffffffff167f3c7a285c7e4919b48bbc24c1b51043d289e390a370561964ee21a3505dca3d4c8284604051610754929190610d14565b60405180910390a2505050565b82805461076d90610ce2565b90600052602060002090601f01602090048101928261078f57600085556107d6565b82601f106107a857805160ff19168380011785556107d6565b828001600101855582156107d6579182015b828111156107d55782518255916020019190600101906107ba565b5b5090506107e391906107e7565b5090565b5b808211156108005760008160009055506001016107e8565b5090565b6000604051905090565b600080fd5b600080fd5b600080fd5b600080fd5b600080fd5b60008083601f84011261083d5761083c610818565b5b8235905067ffffffffffffffff81111561085a5761085961081d565b5b60208301915083600182028301111561087657610875610822565b5b9250929050565b600080602083850312156108945761089361080e565b5b600083013567ffffffffffffffff8111156108b2576108b1610813565b5b6108be85828601610827565b92509250509250929050565b6000819050919050565b6108dd816108ca565b81146108e857600080fd5b50565b6000813590506108fa816108d4565b92915050565b6000602082840312156109165761091561080e565b5b6000610924848285016108eb565b91505092915050565b600081519050919050565b600082825260208201905092915050565b60005b8381101561096757808201518184015260208101905061094c565b83811115610976576000848401525b50505050565b6000601f19601f8301169050919050565b60006109988261092d565b6109a28185610938565b93506109b2818560208601610949565b6109bb8161097c565b840191505092915050565b60008115159050919050565b6109db816109c6565b82525050565b600060408201905081810360008301526109fb818561098d565b9050610a0a60208301846109d2565b9392505050565b600073ffffffffffffffffffffffffffffffffffffffff82169050919050565b6000610a3c82610a11565b9050919050565b610a4c81610a31565b8114610a5757600080fd5b50565b600081359050610a6981610a43565b92915050565b60008060408385031215610a8657610a8561080e565b5b6000610a9485828601610a5a565b9250506020610aa5858286016108eb565b9150509250929050565b600080fd5b7f4e487b7100000000000000000000000000000000000000000000000000000000600052604160045260246000fd5b610aec8261097c565b810181811067ffffffffffffffff82111715610b0b57610b0a610ab4565b5b80604052505050565b6000610b1e610804565b9050610b2a8282610ae3565b919050565b600067ffffffffffffffff821115610b4a57610b49610ab4565b5b610b538261097c565b9050602081019050919050565b82818337600083830152505050565b6000610b82610b7d84610b2f565b610b14565b905082815260208101848484011115610b9e57610b9d610aaf565b5b610ba9848285610b60565b509392505050565b600082601f830112610bc657610bc5610818565b5b8135610bd6848260208601610b6f565b91505092915050565b60008060408385031215610bf657610bf561080e565b5b6000610c04858286016108eb565b925050602083013567ffffffffffffffff811115610c2557610c24610813565b5b610c3185828601610bb1565b9150509250929050565b600081905092915050565b6000610c528385610c3b565b9350610c5f838584610b60565b82840190509392505050565b6000610c78828486610c46565b91508190509392505050565b7f4e487b7100000000000000000000000000000000000000000000000000000000600052603260045260246000fd5b7f4e487b7100000000000000000000000000000000000000000000000000000000600052602260045260246000fd5b60006002820490506001821680610cfa57607f821691505b60208210811415610d0e57610d0d610cb3565b5b50919050565b60006040820190508181036000830152610d2e818561098d565b90508181036020830152610d42818461098d565b9050939250505056fea26469706673582212205dafc85c106825358a468017ddd6a41c885a74cae32e118c09418c7a54aec83c64736f6c634300080c0033",
  "immutableReferences": {},
  "source": "//SPDX-License-Identifier: MIT\n\npragma solidity ^0.8.7;\n\ncontract Todo {\n\n    event TaskCreated(\n        address indexed owner,\n        string indexed text\n    );\n\n    event TaskCompleted(\n        address indexed owner\n    );\n\n    event TaskUpdated(\n        address indexed owner,\n        string oldText,\n        string newText\n    );\n\n    struct Task {\n        string text;\n        bool completed;\n    }\n\n    mapping(address => Task[]) public tasks;\n\n    function createTask(string calldata _text) external {\n        tasks[msg.sender].push(Task({\n            text: _text,\n            completed: false\n        }));\n\n        emit TaskCreated(\n            msg.sender, \n            _text\n        );\n    }\n\n    function getTask(uint _index) external view returns (string memory, bool) {\n        Task memory task = tasks[msg.sender][_index];\n        return (task.text, task.completed);\n    }\n\n    function updateTask(uint _index, string memory _text) external {\n        string memory oldText = tasks[msg.sender][_index].text;\n        tasks[msg.sender][_index].text = _text;\n\n        emit TaskUpdated(\n            msg.sender, \n            oldText, \n            _text\n        );\n    }\n\n    function toggleCompleted(uint _index) external {\n        tasks[msg.sender][_index].completed = !tasks[msg.sender][_index].completed;\n\n        emit TaskCompleted(\n            msg.sender\n        );\n    }\n\n}",
  "sourcePath": "/home/skodiak/Desarrollo/solidity_practices/contracts/Todo.sol",
  "compiler": {
    "name": "solc",
    "version": "0.8.12+commit.f00d7308.Emscripten.clang"
  },
  "schemaVersion": "3.4.6",
  "updatedAt": "2022-06-20T02:00:09.316Z",
  "devdoc": {
    "kind": "dev",
    "methods": {},
    "version": 1
  },
  "userdoc": {
    "kind": "user",
    "methods": {},
    "version": 1
  }
}